{
  "contractName": "SnapDapp",
  "abi": [
    {
      "inputs": [
        {
          "internalType": "address",
          "name": "_ownerAddress",
          "type": "address"
        }
      ],
      "stateMutability": "nonpayable",
      "type": "constructor"
    },
    {
      "anonymous": false,
      "inputs": [
        {
          "indexed": false,
          "internalType": "string",
          "name": "msg",
          "type": "string"
        }
      ],
      "name": "ChangePriceOrSell",
      "type": "event"
    },
    {
      "anonymous": false,
      "inputs": [
        {
          "indexed": false,
          "internalType": "string",
          "name": "msg",
          "type": "string"
        },
        {
          "indexed": false,
          "internalType": "string",
          "name": "actionType",
          "type": "string"
        }
      ],
      "name": "ImageBought",
      "type": "event"
    },
    {
      "anonymous": false,
      "inputs": [
        {
          "indexed": false,
          "internalType": "uint256",
          "name": "id",
          "type": "uint256"
        },
        {
          "indexed": false,
          "internalType": "string",
          "name": "hash",
          "type": "string"
        },
        {
          "indexed": false,
          "internalType": "string",
          "name": "description",
          "type": "string"
        },
        {
          "indexed": false,
          "internalType": "address",
          "name": "author",
          "type": "address"
        }
      ],
      "name": "ImagePosted",
      "type": "event"
    },
    {
      "anonymous": false,
      "inputs": [
        {
          "indexed": false,
          "internalType": "string",
          "name": "msg",
          "type": "string"
        },
        {
          "indexed": false,
          "internalType": "string",
          "name": "actionType",
          "type": "string"
        }
      ],
      "name": "ImageRequest",
      "type": "event"
    },
    {
      "anonymous": false,
      "inputs": [
        {
          "indexed": false,
          "internalType": "uint256",
          "name": "id",
          "type": "uint256"
        },
        {
          "indexed": false,
          "internalType": "string",
          "name": "hash",
          "type": "string"
        },
        {
          "indexed": false,
          "internalType": "string",
          "name": "description",
          "type": "string"
        },
        {
          "indexed": false,
          "internalType": "uint256",
          "name": "tipAmount",
          "type": "uint256"
        },
        {
          "indexed": false,
          "internalType": "address",
          "name": "author",
          "type": "address"
        }
      ],
      "name": "ImageTipped",
      "type": "event"
    },
    {
      "stateMutability": "payable",
      "type": "fallback",
      "payable": true
    },
    {
      "inputs": [],
      "name": "contractOwner",
      "outputs": [
        {
          "internalType": "address",
          "name": "",
          "type": "address"
        }
      ],
      "stateMutability": "view",
      "type": "function",
      "constant": true
    },
    {
      "inputs": [],
      "name": "imageCount",
      "outputs": [
        {
          "internalType": "uint256",
          "name": "",
          "type": "uint256"
        }
      ],
      "stateMutability": "view",
      "type": "function",
      "constant": true
    },
    {
      "inputs": [
        {
          "internalType": "uint256",
          "name": "",
          "type": "uint256"
        }
      ],
      "name": "images",
      "outputs": [
        {
          "internalType": "uint256",
          "name": "id",
          "type": "uint256"
        },
        {
          "internalType": "string",
          "name": "hash",
          "type": "string"
        },
        {
          "internalType": "string",
          "name": "description",
          "type": "string"
        },
        {
          "internalType": "uint256",
          "name": "tipAmount",
          "type": "uint256"
        },
        {
          "internalType": "uint256",
          "name": "minSellingPrice",
          "type": "uint256"
        },
        {
          "internalType": "address",
          "name": "author",
          "type": "address"
        },
        {
          "internalType": "address",
          "name": "imgOwner",
          "type": "address"
        },
        {
          "internalType": "uint256",
          "name": "bidderCount",
          "type": "uint256"
        },
        {
          "internalType": "bool",
          "name": "wantToSell",
          "type": "bool"
        },
        {
          "internalType": "uint256",
          "name": "boughtCount",
          "type": "uint256"
        }
      ],
      "stateMutability": "view",
      "type": "function",
      "constant": true
    },
    {
      "inputs": [],
      "name": "name",
      "outputs": [
        {
          "internalType": "string",
          "name": "",
          "type": "string"
        }
      ],
      "stateMutability": "view",
      "type": "function",
      "constant": true
    },
    {
      "inputs": [
        {
          "internalType": "address",
          "name": "",
          "type": "address"
        }
      ],
      "name": "orders",
      "outputs": [
        {
          "internalType": "address",
          "name": "imgOwner",
          "type": "address"
        }
      ],
      "stateMutability": "view",
      "type": "function",
      "constant": true
    },
    {
      "stateMutability": "payable",
      "type": "receive",
      "payable": true
    },
    {
      "inputs": [],
      "name": "getBalance",
      "outputs": [
        {
          "internalType": "uint256",
          "name": "",
          "type": "uint256"
        }
      ],
      "stateMutability": "view",
      "type": "function",
      "constant": true
    },
    {
      "inputs": [
        {
          "internalType": "string",
          "name": "_imgHash",
          "type": "string"
        },
        {
          "internalType": "string",
          "name": "_description",
          "type": "string"
        },
        {
          "internalType": "uint256",
          "name": "_minSellingPrice",
          "type": "uint256"
        },
        {
          "internalType": "bool",
          "name": "_wantToSell",
          "type": "bool"
        }
      ],
      "name": "uploadImage",
      "outputs": [],
      "stateMutability": "nonpayable",
      "type": "function"
    },
    {
      "inputs": [
        {
          "internalType": "uint256",
          "name": "_id",
          "type": "uint256"
        }
      ],
      "name": "tipImageOwner",
      "outputs": [],
      "stateMutability": "payable",
      "type": "function",
      "payable": true
    },
    {
      "inputs": [
        {
          "internalType": "uint256",
          "name": "_id",
          "type": "uint256"
        }
      ],
      "name": "buyImageRequest",
      "outputs": [
        {
          "internalType": "bytes",
          "name": "",
          "type": "bytes"
        }
      ],
      "stateMutability": "payable",
      "type": "function",
      "payable": true
    },
    {
      "inputs": [
        {
          "internalType": "uint256",
          "name": "_id",
          "type": "uint256"
        },
        {
          "internalType": "address",
          "name": "_address",
          "type": "address"
        }
      ],
      "name": "getRequest",
      "outputs": [
        {
          "internalType": "uint256",
          "name": "",
          "type": "uint256"
        }
      ],
      "stateMutability": "view",
      "type": "function",
      "constant": true
    },
    {
      "inputs": [
        {
          "internalType": "uint256",
          "name": "_id",
          "type": "uint256"
        }
      ],
      "name": "removeFromSale",
      "outputs": [],
      "stateMutability": "nonpayable",
      "type": "function"
    },
    {
      "inputs": [
        {
          "internalType": "uint256",
          "name": "_imgId",
          "type": "uint256"
        },
        {
          "internalType": "uint256",
          "name": "_index",
          "type": "uint256"
        }
      ],
      "name": "getBuyersFromList",
      "outputs": [
        {
          "internalType": "address",
          "name": "",
          "type": "address"
        }
      ],
      "stateMutability": "view",
      "type": "function",
      "constant": true
    },
    {
      "inputs": [
        {
          "internalType": "uint256",
          "name": "_imgId",
          "type": "uint256"
        }
      ],
      "name": "getTotalBuyers",
      "outputs": [
        {
          "internalType": "uint256",
          "name": "",
          "type": "uint256"
        }
      ],
      "stateMutability": "view",
      "type": "function",
      "constant": true
    },
    {
      "inputs": [
        {
          "internalType": "uint256",
          "name": "_id",
          "type": "uint256"
        },
        {
          "internalType": "uint256",
          "name": "_minSellingPrice",
          "type": "uint256"
        }
      ],
      "name": "changePriceOrSell",
      "outputs": [],
      "stateMutability": "nonpayable",
      "type": "function"
    },
    {
      "inputs": [
        {
          "internalType": "uint256",
          "name": "_imgId",
          "type": "uint256"
        }
      ],
      "name": "removeOrder",
      "outputs": [
        {
          "internalType": "bytes",
          "name": "",
          "type": "bytes"
        }
      ],
      "stateMutability": "nonpayable",
      "type": "function"
    },
    {
      "inputs": [
        {
          "internalType": "address",
          "name": "_address",
          "type": "address"
        }
      ],
      "name": "getOrders",
      "outputs": [
        {
          "internalType": "uint256[]",
          "name": "",
          "type": "uint256[]"
        }
      ],
      "stateMutability": "view",
      "type": "function",
      "constant": true
    }
  ],
  "bytecode": "0x60806040526040518060400160405280600881526020017f536e6170446170700000000000000000000000000000000000000000000000008152506001908051906020019062000051929190620000d1565b5060006003553480156200006457600080fd5b50604051620033b9380380620033b983398181016040528101906200008a919062000198565b806000806101000a81548173ffffffffffffffffffffffffffffffffffffffff021916908373ffffffffffffffffffffffffffffffffffffffff1602179055505062000277565b828054620000df90620001f8565b90600052602060002090601f0160209004810192826200010357600085556200014f565b82601f106200011e57805160ff19168380011785556200014f565b828001600101855582156200014f579182015b828111156200014e57825182559160200191906001019062000131565b5b5090506200015e919062000162565b5090565b5b808211156200017d57600081600090555060010162000163565b5090565b60008151905062000192816200025d565b92915050565b600060208284031215620001ab57600080fd5b6000620001bb8482850162000181565b91505092915050565b6000620001d182620001d8565b9050919050565b600073ffffffffffffffffffffffffffffffffffffffff82169050919050565b600060028204905060018216806200021157607f821691505b602082108114156200022857620002276200022e565b5b50919050565b7f4e487b7100000000000000000000000000000000000000000000000000000000600052602260045260246000fd5b6200026881620001c4565b81146200027457600080fd5b50565b61313280620002876000396000f3fe6080604052600436106100f75760003560e01c806392053b631161008a578063a2fd237d11610059578063a2fd237d14610345578063ce606ee014610382578063f40e8471146103ad578063fed65027146103ea576100fe565b806392053b63146102705780639645337a1461029b578063a066bcb4146102d8578063a078c20214610308576100fe565b806317407e48116100c657806317407e48146101bc57806375fafde1146101e5578063848564821461020e5780638567ade814610254576100fe565b806306fdde0314610100578063093376fe1461012b57806312065fe0146101685780631361a3b614610193576100fe565b366100fe57005b005b34801561010c57600080fd5b50610115610427565b60405161012291906125f7565b60405180910390f35b34801561013757600080fd5b50610152600480360381019061014d919061200c565b6104b5565b60405161015f91906125b3565b60405180910390f35b34801561017457600080fd5b5061017d6105c0565b60405161018a919061281f565b60405180910390f35b34801561019f57600080fd5b506101ba60048036038101906101b591906120c8565b6105c8565b005b3480156101c857600080fd5b506101e360048036038101906101de919061212d565b6106ad565b005b3480156101f157600080fd5b5061020c60048036038101906102079190612035565b610b6b565b005b34801561021a57600080fd5b50610235600480360381019061023091906120c8565b610e0f565b60405161024b9a9998979695949392919061288d565b60405180910390f35b61026e600480360381019061026991906120c8565b610fc0565b005b34801561027c57600080fd5b50610285611250565b604051610292919061281f565b60405180910390f35b3480156102a757600080fd5b506102c260048036038101906102bd91906120c8565b611256565b6040516102cf91906125d5565b60405180910390f35b6102f260048036038101906102ed91906120c8565b61161a565b6040516102ff91906125d5565b60405180910390f35b34801561031457600080fd5b5061032f600480360381019061032a91906120c8565b611bff565b60405161033c919061281f565b60405180910390f35b34801561035157600080fd5b5061036c6004803603810190610367919061212d565b611c72565b6040516103799190612598565b60405180910390f35b34801561038e57600080fd5b50610397611d4b565b6040516103a49190612598565b60405180910390f35b3480156103b957600080fd5b506103d460048036038101906103cf919061200c565b611d6f565b6040516103e19190612598565b60405180910390f35b3480156103f657600080fd5b50610411600480360381019061040c91906120f1565b611dad565b60405161041e919061281f565b60405180910390f35b6001805461043490612bea565b80601f016020809104026020016040519081016040528092919081815260200182805461046090612bea565b80156104ad5780601f10610482576101008083540402835291602001916104ad565b820191906000526020600020905b81548152906001019060200180831161049057829003601f168201915b505050505081565b60606000600260008473ffffffffffffffffffffffffffffffffffffffff1673ffffffffffffffffffffffffffffffffffffffff1681526020019081526020016000206040518060400160405290816000820160009054906101000a900473ffffffffffffffffffffffffffffffffffffffff1673ffffffffffffffffffffffffffffffffffffffff1673ffffffffffffffffffffffffffffffffffffffff168152602001600182018054806020026020016040519081016040528092919081815260200182805480156105a857602002820191906000526020600020905b815481526020019060010190808311610594575b50505050508152505090508060200151915050919050565b600047905090565b6000811180156105da57506003548111155b6105e357600080fd5b60006004600083815260200190815260200160002090508060060160009054906101000a900473ffffffffffffffffffffffffffffffffffffffff1673ffffffffffffffffffffffffffffffffffffffff163373ffffffffffffffffffffffffffffffffffffffff161461068c576040517f08c379a000000000000000000000000000000000000000000000000000000000815260040161068390612619565b60405180910390fd5b60008160080160006101000a81548160ff0219169083151502179055505050565b6000821180156106bf57506003548211155b6106c857600080fd5b60006004600084815260200190815260200160002090508060060160009054906101000a900473ffffffffffffffffffffffffffffffffffffffff1673ffffffffffffffffffffffffffffffffffffffff163373ffffffffffffffffffffffffffffffffffffffff1614610771576040517f08c379a00000000000000000000000000000000000000000000000000000000081526004016107689061275f565b60405180910390fd5b8060080160009054906101000a900460ff166107a55760018160080160006101000a81548160ff0219169083151502179055505b818160040181905550600081600a0180548060200260200160405190810160405280929190818152602001828054801561083457602002820191906000526020600020905b8160009054906101000a900473ffffffffffffffffffffffffffffffffffffffff1673ffffffffffffffffffffffffffffffffffffffff16815260200190600101908083116107ea575b505050505090506000815190506000805b8281108015610852575081155b15610aec576000848281518110610892577f4e487b7100000000000000000000000000000000000000000000000000000000600052603260045260246000fd5b602002602001015190508686600b0160008373ffffffffffffffffffffffffffffffffffffffff1673ffffffffffffffffffffffffffffffffffffffff168152602001908152602001600020541415610ad857600192506000808760060160009054906101000a900473ffffffffffffffffffffffffffffffffffffffff1673ffffffffffffffffffffffffffffffffffffffff168960405161093490612583565b60006040518083038185875af1925050503d8060008114610971576040519150601f19603f3d011682016040523d82523d6000602084013e610976565b606091505b5091509150816109bb576040517f08c379a00000000000000000000000000000000000000000000000000000000081526004016109b29061271f565b60405180910390fd5b828860060160006101000a81548173ffffffffffffffffffffffffffffffffffffffff021916908373ffffffffffffffffffffffffffffffffffffffff16021790555060008860080160006101000a81548160ff021916908315150217905550876009016000815480929190610a3090612c4d565b919050555060405180604001604052808473ffffffffffffffffffffffffffffffffffffffff1660001b81526020018a60001b81525088600d0160008a600901548152602001908152602001600020906002610a8d929190611e0b565b50600088600b0160008573ffffffffffffffffffffffffffffffffffffffff1673ffffffffffffffffffffffffffffffffffffffff1681526020019081526020016000208190555050505b8180610ae390612c4d565b92505050610845565b8115610b2c577f7789a6cfc343880c11202abb2c243d16595a1210e212cfea363d26d23a4f3bc1604051610b1f9061268c565b60405180910390a1610b62565b7f7789a6cfc343880c11202abb2c243d16595a1210e212cfea363d26d23a4f3bc1604051610b599061277f565b60405180910390a15b50505050505050565b6000845111610baf576040517f08c379a0000000000000000000000000000000000000000000000000000000008152600401610ba69061273f565b60405180910390fd5b6000835111610bf3576040517f08c379a0000000000000000000000000000000000000000000000000000000008152600401610bea906127bf565b60405180910390fd5b60008211610c36576040517f08c379a0000000000000000000000000000000000000000000000000000000008152600401610c2d9061279f565b60405180910390fd5b600073ffffffffffffffffffffffffffffffffffffffff163373ffffffffffffffffffffffffffffffffffffffff161415610ca6576040517f08c379a0000000000000000000000000000000000000000000000000000000008152600401610c9d906127ff565b60405180910390fd5b60036000815480929190610cb990612c4d565b919050555060006004600060035481526020019081526020016000209050600354816000018190555084816001019080519060200190610cfa929190611e58565b5083816002019080519060200190610d13929190611e58565b5060008160030181905550828160040181905550338160050160006101000a81548173ffffffffffffffffffffffffffffffffffffffff021916908373ffffffffffffffffffffffffffffffffffffffff160217905550338160060160006101000a81548173ffffffffffffffffffffffffffffffffffffffff021916908373ffffffffffffffffffffffffffffffffffffffff160217905550818160080160006101000a81548160ff0219169083151502179055507f709f171064f6966d61c19526a2daf07d69a02f0370b63549254e5588e6352a16600354868633604051610e00949392919061283a565b60405180910390a15050505050565b6004602052806000526040600020600091509050806000015490806001018054610e3890612bea565b80601f0160208091040260200160405190810160405280929190818152602001828054610e6490612bea565b8015610eb15780601f10610e8657610100808354040283529160200191610eb1565b820191906000526020600020905b815481529060010190602001808311610e9457829003601f168201915b505050505090806002018054610ec690612bea565b80601f0160208091040260200160405190810160405280929190818152602001828054610ef290612bea565b8015610f3f5780601f10610f1457610100808354040283529160200191610f3f565b820191906000526020600020905b815481529060010190602001808311610f2257829003601f168201915b5050505050908060030154908060040154908060050160009054906101000a900473ffffffffffffffffffffffffffffffffffffffff16908060060160009054906101000a900473ffffffffffffffffffffffffffffffffffffffff16908060070154908060080160009054906101000a900460ff1690806009015490508a565b600081118015610fd257506003548111155b610fdb57600080fd5b600060046000838152602001908152602001600020905060008160050160009054906101000a900473ffffffffffffffffffffffffffffffffffffffff16905060008260060160009054906101000a900473ffffffffffffffffffffffffffffffffffffffff169050600060646014346110559190612b06565b61105f9190612ad5565b9050600060646050346110729190612b06565b61107c9190612ad5565b90508273ffffffffffffffffffffffffffffffffffffffff168473ffffffffffffffffffffffffffffffffffffffff1614611144578373ffffffffffffffffffffffffffffffffffffffff166108fc839081150290604051600060405180830381858888f193505050501580156110f7573d6000803e3d6000fd5b508273ffffffffffffffffffffffffffffffffffffffff166108fc829081150290604051600060405180830381858888f1935050505015801561113e573d6000803e3d6000fd5b5061118c565b8373ffffffffffffffffffffffffffffffffffffffff166108fc349081150290604051600060405180830381858888f1935050505015801561118a573d6000803e3d6000fd5b505b348560030160008282546111a09190612a7f565b925050819055503485600c0160003373ffffffffffffffffffffffffffffffffffffffff1673ffffffffffffffffffffffffffffffffffffffff16815260200190815260200160002060008282546111f89190612a7f565b925050819055507f1be5317bca8d3f70dc1efe89958be71bff36cdca33fc00a6423e25eb2f1d492f868660010187600201886003015488604051611240959493929190612937565b60405180910390a1505050505050565b60035481565b606060008211801561126a57506003548211155b61127357600080fd5b6000600460008481526020019081526020016000209050600081600b0160003373ffffffffffffffffffffffffffffffffffffffff1673ffffffffffffffffffffffffffffffffffffffff16815260200190815260200160002054141561130f576040517f08c379a0000000000000000000000000000000000000000000000000000000008152600401611306906126cc565b60405180910390fd5b6000803373ffffffffffffffffffffffffffffffffffffffff1683600b0160003373ffffffffffffffffffffffffffffffffffffffff1673ffffffffffffffffffffffffffffffffffffffff1681526020019081526020016000205460405161137790612583565b60006040518083038185875af1925050503d80600081146113b4576040519150601f19603f3d011682016040523d82523d6000602084013e6113b9565b606091505b5091509150816113fe576040517f08c379a00000000000000000000000000000000000000000000000000000000081526004016113f59061271f565b60405180910390fd5b600083600b0160003373ffffffffffffffffffffffffffffffffffffffff1673ffffffffffffffffffffffffffffffffffffffff168152602001908152602001600020819055506000600260003373ffffffffffffffffffffffffffffffffffffffff1673ffffffffffffffffffffffffffffffffffffffff16815260200190815260200160002090506000816001018054806020026020016040519081016040528092919081815260200182805480156114d857602002820191906000526020600020905b8154815260200190600101908083116114c4575b5050505050905060008260010180548060200260200160405190810160405280929190818152602001828054801561152f57602002820191906000526020600020905b81548152602001906001019080831161151b575b5050505050905060005b815181101561160a578882828151811061157c577f4e487b7100000000000000000000000000000000000000000000000000000000600052603260045260246000fd5b602002602001015114156115f7578281815181106115c3577f4e487b7100000000000000000000000000000000000000000000000000000000600052603260045260246000fd5b602002602001016000815250828460010190805190602001906115e7929190611ede565b5084975050505050505050611615565b808061160290612c4d565b915050611539565b508396505050505050505b919050565b606060008211801561162e57506003548211155b61163757600080fd5b600060046000848152602001908152602001600020905060008160060160009054906101000a900473ffffffffffffffffffffffffffffffffffffffff1690508160040154341115801561168b5750600034115b6116ca576040517f08c379a00000000000000000000000000000000000000000000000000000000081526004016116c1906127df565b60405180910390fd5b600082600b0160003373ffffffffffffffffffffffffffffffffffffffff1673ffffffffffffffffffffffffffffffffffffffff168152602001908152602001600020541461174e576040517f08c379a000000000000000000000000000000000000000000000000000000000815260040161174590612639565b60405180910390fd5b3482600401541115801561177057508160080160009054906101000a900460ff165b15611998576000808273ffffffffffffffffffffffffffffffffffffffff163460405161179c90612583565b60006040518083038185875af1925050503d80600081146117d9576040519150601f19603f3d011682016040523d82523d6000602084013e6117de565b606091505b509150915081611823576040517f08c379a000000000000000000000000000000000000000000000000000000000815260040161181a9061271f565b60405180910390fd5b338460060160006101000a81548173ffffffffffffffffffffffffffffffffffffffff021916908373ffffffffffffffffffffffffffffffffffffffff16021790555060008460080160006101000a81548160ff02191690831515021790555083600901600081548092919061189890612c4d565b919050555060405180604001604052803373ffffffffffffffffffffffffffffffffffffffff1660001b81526020013460001b81525084600d016000866009015481526020019081526020016000209060026118f5929190611e0b565b5083600701600081548092919061190b90612c4d565b9190505550600084600b0160003373ffffffffffffffffffffffffffffffffffffffff1673ffffffffffffffffffffffffffffffffffffffff168152602001908152602001600020819055507f34e491eb66ee304c70fcdaf23372612d2a0ea85b4c09131fce364bc1d8552220604051611984906126ec565b60405180910390a180945050505050611bfa565b3482600b0160003373ffffffffffffffffffffffffffffffffffffffff1673ffffffffffffffffffffffffffffffffffffffff1681526020019081526020016000208190555081600a01339080600181540180825580915050600190039060005260206000200160009091909190916101000a81548173ffffffffffffffffffffffffffffffffffffffff021916908373ffffffffffffffffffffffffffffffffffffffff1602179055506000803073ffffffffffffffffffffffffffffffffffffffff1634604051611a6a90612583565b60006040518083038185875af1925050503d8060008114611aa7576040519150601f19603f3d011682016040523d82523d6000602084013e611aac565b606091505b509150915081611af1576040517f08c379a0000000000000000000000000000000000000000000000000000000008152600401611ae89061271f565b60405180910390fd5b836007016000815480929190611b0690612c4d565b91905055506000600260003373ffffffffffffffffffffffffffffffffffffffff1673ffffffffffffffffffffffffffffffffffffffff1681526020019081526020016000209050338160000160006101000a81548173ffffffffffffffffffffffffffffffffffffffff021916908373ffffffffffffffffffffffffffffffffffffffff160217905550806001018790806001815401808255809150506001900390600052602060002001600090919091909150557fc48fd32311b15f44bff37cf1e842e69ec8efad58cd1884bb34441fd8a5208806604051611be990612659565b60405180910390a181955050505050505b919050565b60008082118015611c1257506003548211155b611c51576040517f08c379a0000000000000000000000000000000000000000000000000000000008152600401611c48906126ac565b60405180910390fd5b60046000838152602001908152602001600020600a01805490509050919050565b60008083118015611c8557506003548311155b611cc4576040517f08c379a0000000000000000000000000000000000000000000000000000000008152600401611cbb906126ac565b60405180910390fd5b600060046000858152602001908152602001600020600a018381548110611d14577f4e487b7100000000000000000000000000000000000000000000000000000000600052603260045260246000fd5b9060005260206000200160009054906101000a900473ffffffffffffffffffffffffffffffffffffffff1690508091505092915050565b60008054906101000a900473ffffffffffffffffffffffffffffffffffffffff1681565b60026020528060005260406000206000915090508060000160009054906101000a900473ffffffffffffffffffffffffffffffffffffffff16905081565b600060046000848152602001908152602001600020600b0160008373ffffffffffffffffffffffffffffffffffffffff1673ffffffffffffffffffffffffffffffffffffffff16815260200190815260200160002054905092915050565b828054828255906000526020600020908101928215611e47579160200282015b82811115611e46578251825591602001919060010190611e2b565b5b509050611e549190611f2b565b5090565b828054611e6490612bea565b90600052602060002090601f016020900481019282611e865760008555611ecd565b82601f10611e9f57805160ff1916838001178555611ecd565b82800160010185558215611ecd579182015b82811115611ecc578251825591602001919060010190611eb1565b5b509050611eda9190611f48565b5090565b828054828255906000526020600020908101928215611f1a579160200282015b82811115611f19578251825591602001919060010190611efe565b5b509050611f279190611f48565b5090565b5b80821115611f44576000816000905550600101611f2c565b5090565b5b80821115611f61576000816000905550600101611f49565b5090565b6000611f78611f73846129bd565b612998565b905082815260208101848484011115611f9057600080fd5b611f9b848285612ba8565b509392505050565b600081359050611fb2816130b7565b92915050565b600081359050611fc7816130ce565b92915050565b600082601f830112611fde57600080fd5b8135611fee848260208601611f65565b91505092915050565b600081359050612006816130e5565b92915050565b60006020828403121561201e57600080fd5b600061202c84828501611fa3565b91505092915050565b6000806000806080858703121561204b57600080fd5b600085013567ffffffffffffffff81111561206557600080fd5b61207187828801611fcd565b945050602085013567ffffffffffffffff81111561208e57600080fd5b61209a87828801611fcd565b93505060406120ab87828801611ff7565b92505060606120bc87828801611fb8565b91505092959194509250565b6000602082840312156120da57600080fd5b60006120e884828501611ff7565b91505092915050565b6000806040838503121561210457600080fd5b600061211285828601611ff7565b925050602061212385828601611fa3565b9150509250929050565b6000806040838503121561214057600080fd5b600061214e85828601611ff7565b925050602061215f85828601611ff7565b9150509250929050565b60006121758383612565565b60208301905092915050565b61218a81612b60565b82525050565b600061219b82612a13565b6121a58185612a41565b93506121b0836129ee565b8060005b838110156121e15781516121c88882612169565b97506121d383612a34565b9250506001810190506121b4565b5085935050505092915050565b6121f781612b72565b82525050565b600061220882612a1e565b6122128185612a52565b9350612222818560208601612bb7565b61222b81612d52565b840191505092915050565b600061224182612a29565b61224b8185612a6e565b935061225b818560208601612bb7565b61226481612d52565b840191505092915050565b6000815461227c81612bea565b6122868186612a6e565b945060018216600081146122a157600181146122b3576122e6565b60ff19831686526020860193506122e6565b6122bc856129fe565b60005b838110156122de578154818901526001820191506020810190506122bf565b808801955050505b50505092915050565b60006122fc601883612a6e565b915061230782612d63565b602082019050919050565b600061231f604d83612a6e565b915061232a82612d8c565b606082019050919050565b6000612342601983612a6e565b915061234d82612e01565b602082019050919050565b6000612365600383612a6e565b915061237082612e2a565b602082019050919050565b6000612388600b83612a6e565b915061239382612e53565b602082019050919050565b60006123ab601383612a6e565b91506123b682612e7c565b602082019050919050565b60006123ce600f83612a6e565b91506123d982612ea5565b602082019050919050565b60006123f1601783612a6e565b91506123fc82612ece565b602082019050919050565b6000612414601383612a6e565b915061241f82612ef7565b602082019050919050565b6000612437601683612a6e565b915061244282612f20565b602082019050919050565b600061245a600083612a63565b915061246582612f49565b600082019050919050565b600061247d601783612a6e565b915061248882612f4c565b602082019050919050565b60006124a0600e83612a6e565b91506124ab82612f75565b602082019050919050565b60006124c3602283612a6e565b91506124ce82612f9e565b604082019050919050565b60006124e6601783612a6e565b91506124f182612fed565b602082019050919050565b6000612509602d83612a6e565b915061251482613016565b604082019050919050565b600061252c600383612a6e565b915061253782613065565b602082019050919050565b600061254f600e83612a6e565b915061255a8261308e565b602082019050919050565b61256e81612b9e565b82525050565b61257d81612b9e565b82525050565b600061258e8261244d565b9150819050919050565b60006020820190506125ad6000830184612181565b92915050565b600060208201905081810360008301526125cd8184612190565b905092915050565b600060208201905081810360008301526125ef81846121fd565b905092915050565b600060208201905081810360008301526126118184612236565b905092915050565b60006020820190508181036000830152612632816122ef565b9050919050565b6000602082019050818103600083015261265281612312565b9050919050565b6000604082019050818103600083015261267281612335565b905081810360208301526126858161251f565b9050919050565b600060208201905081810360008301526126a58161237b565b9050919050565b600060208201905081810360008301526126c58161239e565b9050919050565b600060208201905081810360008301526126e5816123c1565b9050919050565b60006040820190508181036000830152612705816123e4565b9050818103602083015261271881612358565b9050919050565b6000602082019050818103600083015261273881612407565b9050919050565b600060208201905081810360008301526127588161242a565b9050919050565b6000602082019050818103600083015261277881612470565b9050919050565b6000602082019050818103600083015261279881612493565b9050919050565b600060208201905081810360008301526127b8816124b6565b9050919050565b600060208201905081810360008301526127d8816124d9565b9050919050565b600060208201905081810360008301526127f8816124fc565b9050919050565b6000602082019050818103600083015261281881612542565b9050919050565b60006020820190506128346000830184612574565b92915050565b600060808201905061284f6000830187612574565b81810360208301526128618186612236565b905081810360408301526128758185612236565b90506128846060830184612181565b95945050505050565b6000610140820190506128a3600083018d612574565b81810360208301526128b5818c612236565b905081810360408301526128c9818b612236565b90506128d8606083018a612574565b6128e56080830189612574565b6128f260a0830188612181565b6128ff60c0830187612181565b61290c60e0830186612574565b61291a6101008301856121ee565b612928610120830184612574565b9b9a5050505050505050505050565b600060a08201905061294c6000830188612574565b818103602083015261295e818761226f565b90508181036040830152612972818661226f565b90506129816060830185612574565b61298e6080830184612181565b9695505050505050565b60006129a26129b3565b90506129ae8282612c1c565b919050565b6000604051905090565b600067ffffffffffffffff8211156129d8576129d7612d23565b5b6129e182612d52565b9050602081019050919050565b6000819050602082019050919050565b60008190508160005260206000209050919050565b600081519050919050565b600081519050919050565b600081519050919050565b6000602082019050919050565b600082825260208201905092915050565b600082825260208201905092915050565b600081905092915050565b600082825260208201905092915050565b6000612a8a82612b9e565b9150612a9583612b9e565b9250827fffffffffffffffffffffffffffffffffffffffffffffffffffffffffffffffff03821115612aca57612ac9612c96565b5b828201905092915050565b6000612ae082612b9e565b9150612aeb83612b9e565b925082612afb57612afa612cc5565b5b828204905092915050565b6000612b1182612b9e565b9150612b1c83612b9e565b9250817fffffffffffffffffffffffffffffffffffffffffffffffffffffffffffffffff0483118215151615612b5557612b54612c96565b5b828202905092915050565b6000612b6b82612b7e565b9050919050565b60008115159050919050565b600073ffffffffffffffffffffffffffffffffffffffff82169050919050565b6000819050919050565b82818337600083830152505050565b60005b83811015612bd5578082015181840152602081019050612bba565b83811115612be4576000848401525b50505050565b60006002820490506001821680612c0257607f821691505b60208210811415612c1657612c15612cf4565b5b50919050565b612c2582612d52565b810181811067ffffffffffffffff82111715612c4457612c43612d23565b5b80604052505050565b6000612c5882612b9e565b91507fffffffffffffffffffffffffffffffffffffffffffffffffffffffffffffffff821415612c8b57612c8a612c96565b5b600182019050919050565b7f4e487b7100000000000000000000000000000000000000000000000000000000600052601160045260246000fd5b7f4e487b7100000000000000000000000000000000000000000000000000000000600052601260045260246000fd5b7f4e487b7100000000000000000000000000000000000000000000000000000000600052602260045260246000fd5b7f4e487b7100000000000000000000000000000000000000000000000000000000600052604160045260246000fd5b6000601f19601f8301169050919050565b7f796f757420617265206e6f7420617574686f72697a6564210000000000000000600082015250565b7f596f7572206f7264657220616c726561647920686173206265656e206c6f636b60008201527f65642120706c656173652064656c657465206f6c64206f7264657220616e642060208201527f6372656174696e67206e65772e00000000000000000000000000000000000000604082015250565b7f4f7264657220506c61636564205375636365737366756c792100000000000000600082015250565b7f6275790000000000000000000000000000000000000000000000000000000000600082015250565b7f496d61676520736f6c6421000000000000000000000000000000000000000000600082015250565b7f6e6f742076616c696420696d6167652069642100000000000000000000000000600082015250565b7f4e6f206f7264657220666f756e64210000000000000000000000000000000000600082015250565b7f4875727261792120496d61676520697320796f75727321000000000000000000600082015250565b7f4661696c656420746f2073656e64204554482100000000000000000000000000600082015250565b7f696d616765206861736820697320726571756972656400000000000000000000600082015250565b50565b7f796f7520617265206e6f7420617574686f72697a656421000000000000000000600082015250565b7f5072696365205570646174656421000000000000000000000000000000000000600082015250565b7f6d696e696d756d2073656c6c696e67207072696365206973207265717569726560008201527f6421000000000000000000000000000000000000000000000000000000000000602082015250565b7f6465736372697074696f6e206973207265717569726564000000000000000000600082015250565b7f70726963652073686f756c64206265206265747765656e203020616e6420657860008201527f7065637465642070726963652100000000000000000000000000000000000000602082015250565b7f7265710000000000000000000000000000000000000000000000000000000000600082015250565b7f57726f6e67204164647265737321000000000000000000000000000000000000600082015250565b6130c081612b60565b81146130cb57600080fd5b50565b6130d781612b72565b81146130e257600080fd5b50565b6130ee81612b9e565b81146130f957600080fd5b5056fea26469706673582212208fcdc681f5df0146ce3d32ff3bb5ca1c170ecc024b76c4714ef192b1cad2d84f64736f6c63430008040033",
  "immutableReferences": {},
  "source": "// SPDX-License-Identifier: MIT\npragma solidity ^0.8.4;\npragma experimental ABIEncoderV2;\n\ncontract SnapDapp {\n  address public contractOwner; // from solidity 0.8.0 we don't need to declare the address as payable explicitly, but when you rare transferring an amount to such address. \n  string public name = \"SnapDapp\";\n\n  constructor(address _ownerAddress){\n      contractOwner = _ownerAddress;\n  }\n\n\n  struct Image{\n      uint id;\n      string hash;\n      string description;\n      uint tipAmount;\n      uint minSellingPrice;\n      address author; \n      address imgOwner; \n      uint bidderCount;\n      bool wantToSell;\n      uint boughtCount;\n      address[] buyers;\n      mapping(address => uint) requests; // buying requests with buyer address and paid amount\n      mapping(address => uint) tippedBy; // it will contain address of the people who tipped with amount\n      mapping(uint => bytes32[]) boughtAt; // number of times it has beed bought and array with address and amount // FIXME: also with time \n  }\n\n  struct MyOrders{\n    address imgOwner;\n    uint[] imgs;\n  }\n  \n  mapping(address => MyOrders) public orders; \n  \n  \n  uint public imageCount = 0;\n\n  // store Images \n  mapping(uint => Image) public images;\n\n  \n  modifier restricted() {\n    require(\n      msg.sender == contractOwner,\n      \"This function is restricted to the contract's owner\"\n    );\n    _;\n  }\n  \n        /*\n    Which function is called, fallback() or receive()?\n\n           send Ether\n               |\n         msg.data is empty?\n              / \\\n            yes  no\n            /     \\\nreceive() exists?  fallback()\n         /   \\\n        yes   no\n        /      \\\n    receive()   fallback()\n    */\n    \n    // functon to receive ETH. msg.data must be empty\n    receive() external payable {}\n    \n    // fallback function is called when msg.data is not empty\n    fallback() external payable {}\n    \n    function getBalance() public view returns(uint){\n        return address(this).balance;\n    }\n\n  // event to emit when image is posted\n    event ImagePosted(\n        uint id,\n        string hash, \n        string description,\n        address author\n    );\n\n  // event to emit when image is tipped\n    event ImageTipped(\n        uint id,\n        string hash, \n        string description,\n        uint tipAmount,\n        address author\n    );\n\n  // image buying request\n    event ImageRequest(\n        string msg, \n        string actionType\n    );\n\n  // event to emit when image is bought\n    event ImageBought(\n        string msg, \n        string actionType\n    );\n\n    // change Price \n    event ChangePriceOrSell(\n        string msg\n    );\n\n    // post image\n    function uploadImage(string memory _imgHash, string memory _description,  uint _minSellingPrice, bool _wantToSell) public{\n\n        // make sure image hash exists\n        require(bytes(_imgHash).length > 0, \"image hash is required\");\n        // console.log(bytes(_imgHash));\n\n        // make sure image description exists\n        require(bytes(_description).length > 0, \"description is required\");\n\n        // make sure minimum selling price exists\n        require(_minSellingPrice > 0, \"minimum selling price is required!\");\n\n        // make sure uploader address exists\n        require(msg.sender != address(0x0), \"Wrong Address!\");\n        \n\n        // increment image id\n        imageCount++;\n\n        ////TYPE ERROR:  we cannot do like this:  because Image type variable contains nested mapping\n        // images[imageCount] = Image( \n        //     imageCount, \n        //     _imgHash, \n        //     _description, \n        //     0, \n        //     _minSellingPrice, \n        //     msg.sender, \n        //     msg.sender\n        // );\n        \n        \n        // add image to contract \n        Image storage newImage = images[imageCount];\n        newImage.id = imageCount;\n        newImage.hash = _imgHash;\n        newImage.description = _description;\n        newImage.tipAmount = 0;\n        newImage.minSellingPrice = _minSellingPrice;\n        newImage.author = msg.sender;\n        newImage.imgOwner = msg.sender;\n        newImage.wantToSell = _wantToSell;\n        \n        emit ImagePosted(\n            imageCount, \n            _imgHash, \n            _description, \n            msg.sender\n        );\n    }\n    \n    // tip image owner\n    function tipImageOwner(uint _id) public payable{\n    \n        // make sure given id is valid\n        require(_id > 0 && _id <= imageCount);\n        \n        \n        // fetch the image\n        // Image memory _image = images[_id];\n\n        Image storage _image = images[_id]; // saved in storage because I will work directly on it, not on the copy of it\n        \n        // fetch the author\n        address _author = _image.author;\n        \n        // fetch the current image owner\n        address _imgOwner = _image.imgOwner;\n        \n        // tip the author by sending some ether\n        uint _authorReward = (msg.value * 20)/100;  // 20%\n        uint _ownerReward = (msg.value * 80)/100;   // 80%\n        \n        // here 20% of amount will be transferred to imgAuthor and 80% amount will be transferred to ImageOwner\n        \n        // check if author and imgOwner are same or different \n        if(_author != _imgOwner){\n            payable(_author).transfer(_authorReward);\n            payable(_imgOwner).transfer(_ownerReward);\n        }\n        else{\n            payable(_author).transfer(msg.value);\n        }\n        \n        // increament the tip amount of the image\n        _image.tipAmount += msg.value;\n        \n        // now add tipper in the mapping of tippedBy with tipped amount\n        _image.tippedBy[msg.sender] += msg.value;\n        \n        \n        emit ImageTipped(\n            _id, \n            _image.hash, \n            _image.description, \n            _image.tipAmount, \n            _author\n        );\n    }\n    \n    \n    \n    \n    // make a request for buying image\n    function buyImageRequest(uint _id) public payable returns(bytes memory){\n        // make sure given id is valid\n        require(_id > 0 && _id <= imageCount);\n        \n        // fetch the image\n        Image storage _image = images[_id];\n        \n        // fetch the current image owner\n        address _imgOwner = _image.imgOwner;\n        \n        require(msg.value <= _image.minSellingPrice && msg.value > 0, \"price should be between 0 and expected price!\");\n        \n        // check if buyer has already locked an order or not\n        require(_image.requests[msg.sender] == 0, \"Your order already has been locked! please delete old order and creating new.\");\n        \n        // if buyer's offered price is equal or more than the seller's expected price then transfer money to the current owner and directly change owner\n        \n        if(_image.minSellingPrice <= msg.value && _image.wantToSell){\n            // check if image is for sale or not\n        \n            //// transfer money directly to the owner\n            //payable(_imgOwner).transfer(msg.value); //this method id not longer allowed for transferring ETH\n        \n            //// Call returns a boolean value indicating success or failure.\n            (bool sent, bytes memory data) = payable(_imgOwner).call{value: msg.value}(\"\");\n            \n            require(sent, \"Failed to send ETH!\");\n            \n            \n            // now change owner\n            _image.imgOwner = msg.sender;\n            \n            // now remove from sale\n            _image.wantToSell = false;\n            \n            _image.boughtCount++;\n            \n            _image.boughtAt[_image.boughtCount] = [bytes32(uint256(uint160(msg.sender))), bytes32(msg.value)];\n            \n            _image.bidderCount++; \n            \n            _image.requests[msg.sender] = 0; \n            \n            emit ImageBought('Hurray! Image is yours!', 'buy');\n            return data;\n                    \n        }else{\n            // create and lock order for buying image at given value\n            _image.requests[msg.sender] = msg.value;  \n            \n            // address[] memory _buyersList = _image.buyers;\n\n            _image.buyers.push(msg.sender);\n            \n            \n            // lock amount in the contract \n            (bool sent, bytes memory data) = payable(this).call{value: msg.value}(\"\");\n            \n            require(sent, \"Failed to send ETH!\");\n            \n            _image.bidderCount++; \n            \n            MyOrders storage _myorders = orders[msg.sender];\n            _myorders.imgOwner = msg.sender;\n            _myorders.imgs.push(_id);\n            \n            \n            emit ImageRequest('Order Placed Successfuly!', 'req');\n            return data;\n        }\n    }\n    \n    // get request \n    function getRequest(uint _id, address _address) public view returns(uint){\n        return images[_id].requests[_address];\n    } \n    \n    \n    // TODO: remove auction option from image\n    function removeFromSale(uint _id) public{\n                // make sure given id is valid\n        require(_id > 0 && _id <= imageCount);\n        \n        // fetch the image\n        Image storage _image = images[_id];\n        \n        require(msg.sender == _image.imgOwner, \"yout are not authorized!\");\n        \n        _image.wantToSell = false;\n    }\n    \n    function getBuyersFromList(uint _imgId, uint _index) public view returns(address){\n        // make sure given id is valid\n        require(_imgId > 0 && _imgId <= imageCount, \"not valid image id!\");\n        \n        address currentBuyer = images[_imgId].buyers[_index];\n        \n        return currentBuyer;\n    }\n    \n    function getTotalBuyers(uint _imgId) public view returns(uint){\n        // make sure given id is valid\n        require(_imgId > 0 && _imgId <= imageCount, \"not valid image id!\");\n        \n        return images[_imgId].buyers.length;\n    }\n    \n    \n    \n    // change the selling price \n    function changePriceOrSell(uint _id, uint _minSellingPrice) public{\n                // make sure given id is valid\n        require(_id > 0 && _id <= imageCount);\n        \n        // fetch the image\n        Image storage _image = images[_id];\n        \n        require(msg.sender == _image.imgOwner, \"you are not authorized!\");\n        \n        if(!_image.wantToSell){\n            _image.wantToSell = true;\n        }\n\n        _image.minSellingPrice = _minSellingPrice;\n        \n        address[] memory _buyersList = _image.buyers;\n        uint buyersLen = _buyersList.length;\n        bool buyerAvailable = false;\n        uint i = 0;\n        \n        // check in the requests if someone wants to buy this image or not at expected price, if yes then sell the image\n        while(i < buyersLen && !buyerAvailable){\n            address currentAddr = _buyersList[i];\n            \n            \n            if(_image.requests[currentAddr] == _minSellingPrice){\n                buyerAvailable = true;\n            \n                // transfer money from contract now.\n                (bool sent, bytes memory data) = payable(_image.imgOwner).call{value: _minSellingPrice}(\"\");\n                \n                require(sent, \"Failed to send ETH!\");\n                \n                \n                // now change owner\n                _image.imgOwner = currentAddr;\n                \n                // now remove from sale\n                _image.wantToSell = false;\n                \n                _image.boughtCount++;\n                \n                _image.boughtAt[_image.boughtCount] = [bytes32(uint256(uint160(currentAddr))), bytes32(_minSellingPrice)];\n                \n                _image.requests[currentAddr] = 0; \n\n                \n            }\n            i++;\n        }\n        if(buyerAvailable){\n            emit ChangePriceOrSell('Image sold!');\n        }else{\n            emit ChangePriceOrSell('Price Updated!');\n        }\n        \n    }\n    \n    \n    // TODO: Delete order and get refund\n    function removeOrder(uint _imgId) public returns (bytes memory){ \n        require(_imgId > 0 && _imgId <= imageCount);\n        \n        // fetch the image\n        Image storage _image = images[_imgId];\n        \n        // check if this user is available or not \n        require(_image.requests[msg.sender] != 0, 'No order found!');\n        \n        // transfer money from contract now.\n        (bool sent, bytes memory data) = payable(msg.sender).call{value: _image.requests[msg.sender]}(\"\");\n                \n        require(sent, \"Failed to send ETH!\");\n        \n        _image.requests[msg.sender] = 0;\n        \n        MyOrders storage _orders =  orders[msg.sender];\n        \n        uint[] memory _imgs = _orders.imgs;\n        uint[] memory tmp = _orders.imgs;\n        \n        for(uint i= 0; i < tmp.length; i++ ){\n            if(tmp[i] == _imgId){\n                delete _imgs[i];\n                _orders.imgs = _imgs;\n                return data;\n            }\n        }\n        \n        return data;\n\n        \n    }\n    \n    \n    function getOrders(address _address) external view returns(uint[] memory){\n         MyOrders memory _orders = orders[_address];\n        return _orders.imgs;\n    }\n}\n\n\n\n\n\n\n\n\n",
  "sourcePath": "/Users/aloora/Documents/snap_dapp/contracts/SnapDapp.sol",
  "compiler": {
    "name": "solc",
    "version": "0.8.4+commit.c7e474f2.Emscripten.clang"
  },
  "schemaVersion": "3.4.1",
  "updatedAt": "2021-08-12T10:31:33.469Z",
  "networkType": "ethereum",
  "devdoc": {
    "kind": "dev",
    "methods": {},
    "version": 1
  },
  "userdoc": {
    "kind": "user",
    "methods": {},
    "version": 1
  }
}