{
  "contractName": "SnapDapp",
  "abi": [
    {
      "inputs": [
        {
          "internalType": "address",
          "name": "_ownerAddress",
          "type": "address"
        }
      ],
      "stateMutability": "nonpayable",
      "type": "constructor"
    },
    {
      "anonymous": false,
      "inputs": [
        {
          "indexed": false,
          "internalType": "uint256",
          "name": "id",
          "type": "uint256"
        },
        {
          "indexed": false,
          "internalType": "string",
          "name": "hash",
          "type": "string"
        },
        {
          "indexed": false,
          "internalType": "string",
          "name": "description",
          "type": "string"
        },
        {
          "indexed": false,
          "internalType": "uint256",
          "name": "tipAmount",
          "type": "uint256"
        },
        {
          "indexed": false,
          "internalType": "uint256",
          "name": "minSellingPrice",
          "type": "uint256"
        },
        {
          "indexed": false,
          "internalType": "address",
          "name": "author",
          "type": "address"
        },
        {
          "indexed": false,
          "internalType": "address",
          "name": "imgOwner",
          "type": "address"
        }
      ],
      "name": "ImageBought",
      "type": "event"
    },
    {
      "anonymous": false,
      "inputs": [
        {
          "indexed": false,
          "internalType": "uint256",
          "name": "id",
          "type": "uint256"
        },
        {
          "indexed": false,
          "internalType": "string",
          "name": "hash",
          "type": "string"
        },
        {
          "indexed": false,
          "internalType": "string",
          "name": "description",
          "type": "string"
        },
        {
          "indexed": false,
          "internalType": "address",
          "name": "author",
          "type": "address"
        }
      ],
      "name": "ImagePosted",
      "type": "event"
    },
    {
      "anonymous": false,
      "inputs": [
        {
          "indexed": false,
          "internalType": "uint256",
          "name": "id",
          "type": "uint256"
        },
        {
          "indexed": false,
          "internalType": "string",
          "name": "hash",
          "type": "string"
        },
        {
          "indexed": false,
          "internalType": "string",
          "name": "description",
          "type": "string"
        },
        {
          "indexed": false,
          "internalType": "uint256",
          "name": "tipAmount",
          "type": "uint256"
        },
        {
          "indexed": false,
          "internalType": "address",
          "name": "author",
          "type": "address"
        }
      ],
      "name": "ImageTipped",
      "type": "event"
    },
    {
      "stateMutability": "payable",
      "type": "fallback",
      "payable": true
    },
    {
      "inputs": [],
      "name": "contractOwner",
      "outputs": [
        {
          "internalType": "address",
          "name": "",
          "type": "address"
        }
      ],
      "stateMutability": "view",
      "type": "function",
      "constant": true
    },
    {
      "inputs": [],
      "name": "imageCount",
      "outputs": [
        {
          "internalType": "uint256",
          "name": "",
          "type": "uint256"
        }
      ],
      "stateMutability": "view",
      "type": "function",
      "constant": true
    },
    {
      "inputs": [
        {
          "internalType": "uint256",
          "name": "",
          "type": "uint256"
        }
      ],
      "name": "images",
      "outputs": [
        {
          "internalType": "uint256",
          "name": "id",
          "type": "uint256"
        },
        {
          "internalType": "string",
          "name": "hash",
          "type": "string"
        },
        {
          "internalType": "string",
          "name": "description",
          "type": "string"
        },
        {
          "internalType": "uint256",
          "name": "tipAmount",
          "type": "uint256"
        },
        {
          "internalType": "uint256",
          "name": "minSellingPrice",
          "type": "uint256"
        },
        {
          "internalType": "address",
          "name": "author",
          "type": "address"
        },
        {
          "internalType": "address",
          "name": "imgOwner",
          "type": "address"
        },
        {
          "internalType": "uint256",
          "name": "bidderCount",
          "type": "uint256"
        },
        {
          "internalType": "bool",
          "name": "wantToSell",
          "type": "bool"
        },
        {
          "internalType": "uint256",
          "name": "boughtCount",
          "type": "uint256"
        }
      ],
      "stateMutability": "view",
      "type": "function",
      "constant": true
    },
    {
      "inputs": [],
      "name": "name",
      "outputs": [
        {
          "internalType": "string",
          "name": "",
          "type": "string"
        }
      ],
      "stateMutability": "view",
      "type": "function",
      "constant": true
    },
    {
      "stateMutability": "payable",
      "type": "receive",
      "payable": true
    },
    {
      "inputs": [],
      "name": "getBalance",
      "outputs": [
        {
          "internalType": "uint256",
          "name": "",
          "type": "uint256"
        }
      ],
      "stateMutability": "view",
      "type": "function",
      "constant": true
    },
    {
      "inputs": [
        {
          "internalType": "string",
          "name": "_imgHash",
          "type": "string"
        },
        {
          "internalType": "string",
          "name": "_description",
          "type": "string"
        },
        {
          "internalType": "uint256",
          "name": "_minSellingPrice",
          "type": "uint256"
        },
        {
          "internalType": "bool",
          "name": "_wantToSell",
          "type": "bool"
        }
      ],
      "name": "uploadImage",
      "outputs": [],
      "stateMutability": "nonpayable",
      "type": "function"
    },
    {
      "inputs": [
        {
          "internalType": "uint256",
          "name": "_id",
          "type": "uint256"
        }
      ],
      "name": "tipImageOwner",
      "outputs": [],
      "stateMutability": "payable",
      "type": "function",
      "payable": true
    },
    {
      "inputs": [
        {
          "internalType": "uint256",
          "name": "_id",
          "type": "uint256"
        }
      ],
      "name": "buyImageRequest",
      "outputs": [
        {
          "internalType": "bytes",
          "name": "",
          "type": "bytes"
        }
      ],
      "stateMutability": "payable",
      "type": "function",
      "payable": true
    },
    {
      "inputs": [
        {
          "internalType": "uint256",
          "name": "_id",
          "type": "uint256"
        },
        {
          "internalType": "address",
          "name": "_address",
          "type": "address"
        }
      ],
      "name": "getRequest",
      "outputs": [
        {
          "internalType": "uint256",
          "name": "",
          "type": "uint256"
        }
      ],
      "stateMutability": "view",
      "type": "function",
      "constant": true
    },
    {
      "inputs": [
        {
          "internalType": "uint256",
          "name": "_id",
          "type": "uint256"
        }
      ],
      "name": "removeFromSale",
      "outputs": [],
      "stateMutability": "nonpayable",
      "type": "function"
    },
    {
      "inputs": [
        {
          "internalType": "uint256",
          "name": "_imgId",
          "type": "uint256"
        },
        {
          "internalType": "uint256",
          "name": "_index",
          "type": "uint256"
        }
      ],
      "name": "getBuyersFromList",
      "outputs": [
        {
          "internalType": "address",
          "name": "",
          "type": "address"
        }
      ],
      "stateMutability": "view",
      "type": "function",
      "constant": true
    },
    {
      "inputs": [
        {
          "internalType": "uint256",
          "name": "_imgId",
          "type": "uint256"
        }
      ],
      "name": "getTotalBuyers",
      "outputs": [
        {
          "internalType": "uint256",
          "name": "",
          "type": "uint256"
        }
      ],
      "stateMutability": "view",
      "type": "function",
      "constant": true
    },
    {
      "inputs": [
        {
          "internalType": "uint256",
          "name": "_id",
          "type": "uint256"
        },
        {
          "internalType": "uint256",
          "name": "_minSellingPrice",
          "type": "uint256"
        }
      ],
      "name": "changePriceOrSell",
      "outputs": [],
      "stateMutability": "nonpayable",
      "type": "function"
    },
    {
      "inputs": [
        {
          "internalType": "uint256",
          "name": "_imgId",
          "type": "uint256"
        }
      ],
      "name": "removeOrder",
      "outputs": [
        {
          "internalType": "bytes",
          "name": "",
          "type": "bytes"
        }
      ],
      "stateMutability": "nonpayable",
      "type": "function"
    }
  ],
  "bytecode": "0x60806040526040518060400160405280600881526020017f536e6170446170700000000000000000000000000000000000000000000000008152506001908051906020019062000051929190620000d1565b5060006002553480156200006457600080fd5b5060405162002a5438038062002a5483398181016040528101906200008a919062000198565b806000806101000a81548173ffffffffffffffffffffffffffffffffffffffff021916908373ffffffffffffffffffffffffffffffffffffffff1602179055505062000277565b828054620000df90620001f8565b90600052602060002090601f0160209004810192826200010357600085556200014f565b82601f106200011e57805160ff19168380011785556200014f565b828001600101855582156200014f579182015b828111156200014e57825182559160200191906001019062000131565b5b5090506200015e919062000162565b5090565b5b808211156200017d57600081600090555060010162000163565b5090565b60008151905062000192816200025d565b92915050565b600060208284031215620001ab57600080fd5b6000620001bb8482850162000181565b91505092915050565b6000620001d182620001d8565b9050919050565b600073ffffffffffffffffffffffffffffffffffffffff82169050919050565b600060028204905060018216806200021157607f821691505b602082108114156200022857620002276200022e565b5b50919050565b7f4e487b7100000000000000000000000000000000000000000000000000000000600052602260045260246000fd5b6200026881620001c4565b81146200027457600080fd5b50565b6127cd80620002876000396000f3fe6080604052600436106100e15760003560e01c806392053b631161007f578063a078c20211610059578063a078c202146102b5578063a2fd237d146102f2578063ce606ee01461032f578063fed650271461035a576100e8565b806392053b631461021d5780639645337a14610248578063a066bcb414610285576100e8565b806317407e48116100bb57806317407e481461016957806375fafde11461019257806384856482146101bb5780638567ade814610201576100e8565b806306fdde03146100ea57806312065fe0146101155780631361a3b614610140576100e8565b366100e857005b005b3480156100f657600080fd5b506100ff610397565b60405161010c9190611eb0565b60405180910390f35b34801561012157600080fd5b5061012a610425565b6040516101379190612012565b60405180910390f35b34801561014c57600080fd5b5061016760048036038101906101629190611b1d565b61042d565b005b34801561017557600080fd5b50610190600480360381019061018b9190611b82565b610512565b005b34801561019e57600080fd5b506101b960048036038101906101b49190611a8a565b61095a565b005b3480156101c757600080fd5b506101e260048036038101906101dd9190611b1d565b610bfe565b6040516101f89a99989796959493929190612080565b60405180910390f35b61021b60048036038101906102169190611b1d565b610daf565b005b34801561022957600080fd5b5061023261103f565b60405161023f9190612012565b60405180910390f35b34801561025457600080fd5b5061026f600480360381019061026a9190611b1d565b611045565b60405161027c9190611e8e565b60405180910390f35b61029f600480360381019061029a9190611b1d565b61123f565b6040516102ac9190611e8e565b60405180910390f35b3480156102c157600080fd5b506102dc60048036038101906102d79190611b1d565b611708565b6040516102e99190612012565b60405180910390f35b3480156102fe57600080fd5b5061031960048036038101906103149190611b82565b61177b565b6040516103269190611e73565b60405180910390f35b34801561033b57600080fd5b50610344611854565b6040516103519190611e73565b60405180910390f35b34801561036657600080fd5b50610381600480360381019061037c9190611b46565b611878565b60405161038e9190612012565b60405180910390f35b600180546103a4906123a4565b80601f01602080910402602001604051908101604052809291908181526020018280546103d0906123a4565b801561041d5780601f106103f25761010080835404028352916020019161041d565b820191906000526020600020905b81548152906001019060200180831161040057829003601f168201915b505050505081565b600047905090565b60008111801561043f57506002548111155b61044857600080fd5b60006003600083815260200190815260200160002090508060060160009054906101000a900473ffffffffffffffffffffffffffffffffffffffff1673ffffffffffffffffffffffffffffffffffffffff163373ffffffffffffffffffffffffffffffffffffffff16146104f1576040517f08c379a00000000000000000000000000000000000000000000000000000000081526004016104e890611ed2565b60405180910390fd5b60008160080160006101000a81548160ff0219169083151502179055505050565b60008211801561052457506002548211155b61052d57600080fd5b60006003600084815260200190815260200160002090508060060160009054906101000a900473ffffffffffffffffffffffffffffffffffffffff1673ffffffffffffffffffffffffffffffffffffffff163373ffffffffffffffffffffffffffffffffffffffff16146105d6576040517f08c379a00000000000000000000000000000000000000000000000000000000081526004016105cd90611ed2565b60405180910390fd5b8060080160009054906101000a900460ff1661060a5760018160080160006101000a81548160ff0219169083151502179055505b818160040181905550600081600a0180548060200260200160405190810160405280929190818152602001828054801561069957602002820191906000526020600020905b8160009054906101000a900473ffffffffffffffffffffffffffffffffffffffff1673ffffffffffffffffffffffffffffffffffffffff168152602001906001019080831161064f575b505050505090506000815190506000805b82811080156106b7575081155b156109515760008482815181106106f7577f4e487b7100000000000000000000000000000000000000000000000000000000600052603260045260246000fd5b602002602001015190508686600b0160008373ffffffffffffffffffffffffffffffffffffffff1673ffffffffffffffffffffffffffffffffffffffff16815260200190815260200160002054141561093d57600192506000808760060160009054906101000a900473ffffffffffffffffffffffffffffffffffffffff1673ffffffffffffffffffffffffffffffffffffffff168960405161079990611e5e565b60006040518083038185875af1925050503d80600081146107d6576040519150601f19603f3d011682016040523d82523d6000602084013e6107db565b606091505b509150915081610820576040517f08c379a000000000000000000000000000000000000000000000000000000000815260040161081790611f52565b60405180910390fd5b828860060160006101000a81548173ffffffffffffffffffffffffffffffffffffffff021916908373ffffffffffffffffffffffffffffffffffffffff16021790555060008860080160006101000a81548160ff02191690831515021790555087600901600081548092919061089590612407565b919050555060405180604001604052808473ffffffffffffffffffffffffffffffffffffffff1660001b81526020018a60001b81525088600d0160008a6009015481526020019081526020016000209060026108f29291906118d6565b50600088600b0160008573ffffffffffffffffffffffffffffffffffffffff1673ffffffffffffffffffffffffffffffffffffffff1681526020019081526020016000208190555050505b818061094890612407565b925050506106aa565b50505050505050565b600084511161099e576040517f08c379a000000000000000000000000000000000000000000000000000000000815260040161099590611f72565b60405180910390fd5b60008351116109e2576040517f08c379a00000000000000000000000000000000000000000000000000000000081526004016109d990611fb2565b60405180910390fd5b60008211610a25576040517f08c379a0000000000000000000000000000000000000000000000000000000008152600401610a1c90611f92565b60405180910390fd5b600073ffffffffffffffffffffffffffffffffffffffff163373ffffffffffffffffffffffffffffffffffffffff161415610a95576040517f08c379a0000000000000000000000000000000000000000000000000000000008152600401610a8c90611ff2565b60405180910390fd5b60026000815480929190610aa890612407565b919050555060006003600060025481526020019081526020016000209050600254816000018190555084816001019080519060200190610ae9929190611923565b5083816002019080519060200190610b02929190611923565b5060008160030181905550828160040181905550338160050160006101000a81548173ffffffffffffffffffffffffffffffffffffffff021916908373ffffffffffffffffffffffffffffffffffffffff160217905550338160060160006101000a81548173ffffffffffffffffffffffffffffffffffffffff021916908373ffffffffffffffffffffffffffffffffffffffff160217905550818160080160006101000a81548160ff0219169083151502179055507f709f171064f6966d61c19526a2daf07d69a02f0370b63549254e5588e6352a16600254868633604051610bef949392919061202d565b60405180910390a15050505050565b6003602052806000526040600020600091509050806000015490806001018054610c27906123a4565b80601f0160208091040260200160405190810160405280929190818152602001828054610c53906123a4565b8015610ca05780601f10610c7557610100808354040283529160200191610ca0565b820191906000526020600020905b815481529060010190602001808311610c8357829003601f168201915b505050505090806002018054610cb5906123a4565b80601f0160208091040260200160405190810160405280929190818152602001828054610ce1906123a4565b8015610d2e5780601f10610d0357610100808354040283529160200191610d2e565b820191906000526020600020905b815481529060010190602001808311610d1157829003601f168201915b5050505050908060030154908060040154908060050160009054906101000a900473ffffffffffffffffffffffffffffffffffffffff16908060060160009054906101000a900473ffffffffffffffffffffffffffffffffffffffff16908060070154908060080160009054906101000a900460ff1690806009015490508a565b600081118015610dc157506002548111155b610dca57600080fd5b600060036000838152602001908152602001600020905060008160050160009054906101000a900473ffffffffffffffffffffffffffffffffffffffff16905060008260060160009054906101000a900473ffffffffffffffffffffffffffffffffffffffff16905060006064601434610e4491906122c0565b610e4e919061228f565b905060006064605034610e6191906122c0565b610e6b919061228f565b90508273ffffffffffffffffffffffffffffffffffffffff168473ffffffffffffffffffffffffffffffffffffffff1614610f33578373ffffffffffffffffffffffffffffffffffffffff166108fc839081150290604051600060405180830381858888f19350505050158015610ee6573d6000803e3d6000fd5b508273ffffffffffffffffffffffffffffffffffffffff166108fc829081150290604051600060405180830381858888f19350505050158015610f2d573d6000803e3d6000fd5b50610f7b565b8373ffffffffffffffffffffffffffffffffffffffff166108fc349081150290604051600060405180830381858888f19350505050158015610f79573d6000803e3d6000fd5b505b34856003016000828254610f8f9190612239565b925050819055503485600c0160003373ffffffffffffffffffffffffffffffffffffffff1673ffffffffffffffffffffffffffffffffffffffff1681526020019081526020016000206000828254610fe79190612239565b925050819055507f1be5317bca8d3f70dc1efe89958be71bff36cdca33fc00a6423e25eb2f1d492f86866001018760020188600301548860405161102f95949392919061212a565b60405180910390a1505050505050565b60025481565b606060008211801561105957506002548211155b61106257600080fd5b6000600360008481526020019081526020016000209050600081600b0160003373ffffffffffffffffffffffffffffffffffffffff1673ffffffffffffffffffffffffffffffffffffffff1681526020019081526020016000205414156110fe576040517f08c379a00000000000000000000000000000000000000000000000000000000081526004016110f590611f32565b60405180910390fd5b6000803373ffffffffffffffffffffffffffffffffffffffff1683600b0160003373ffffffffffffffffffffffffffffffffffffffff1673ffffffffffffffffffffffffffffffffffffffff1681526020019081526020016000205460405161116690611e5e565b60006040518083038185875af1925050503d80600081146111a3576040519150601f19603f3d011682016040523d82523d6000602084013e6111a8565b606091505b5091509150816111ed576040517f08c379a00000000000000000000000000000000000000000000000000000000081526004016111e490611f52565b60405180910390fd5b600083600b0160003373ffffffffffffffffffffffffffffffffffffffff1673ffffffffffffffffffffffffffffffffffffffff16815260200190815260200160002081905550809350505050919050565b606060008211801561125357506002548211155b61125c57600080fd5b600060036000848152602001908152602001600020905060008160060160009054906101000a900473ffffffffffffffffffffffffffffffffffffffff169050816004015434111580156112b05750600034115b6112ef576040517f08c379a00000000000000000000000000000000000000000000000000000000081526004016112e690611fd2565b60405180910390fd5b600082600b0160003373ffffffffffffffffffffffffffffffffffffffff1673ffffffffffffffffffffffffffffffffffffffff1681526020019081526020016000205414611373576040517f08c379a000000000000000000000000000000000000000000000000000000000815260040161136a90611ef2565b60405180910390fd5b3482600401541115801561139557508160080160009054906101000a900460ff165b15611588576000808273ffffffffffffffffffffffffffffffffffffffff16346040516113c190611e5e565b60006040518083038185875af1925050503d80600081146113fe576040519150601f19603f3d011682016040523d82523d6000602084013e611403565b606091505b509150915081611448576040517f08c379a000000000000000000000000000000000000000000000000000000000815260040161143f90611f52565b60405180910390fd5b338460060160006101000a81548173ffffffffffffffffffffffffffffffffffffffff021916908373ffffffffffffffffffffffffffffffffffffffff16021790555060008460080160006101000a81548160ff0219169083151502179055508360090160008154809291906114bd90612407565b919050555060405180604001604052803373ffffffffffffffffffffffffffffffffffffffff1660001b81526020013460001b81525084600d0160008660090154815260200190815260200160002090600261151a9291906118d6565b5083600701600081548092919061153090612407565b9190505550600084600b0160003373ffffffffffffffffffffffffffffffffffffffff1673ffffffffffffffffffffffffffffffffffffffff1681526020019081526020016000208190555080945050505050611703565b3482600b0160003373ffffffffffffffffffffffffffffffffffffffff1673ffffffffffffffffffffffffffffffffffffffff1681526020019081526020016000208190555081600a01339080600181540180825580915050600190039060005260206000200160009091909190916101000a81548173ffffffffffffffffffffffffffffffffffffffff021916908373ffffffffffffffffffffffffffffffffffffffff1602179055506000803073ffffffffffffffffffffffffffffffffffffffff163460405161165a90611e5e565b60006040518083038185875af1925050503d8060008114611697576040519150601f19603f3d011682016040523d82523d6000602084013e61169c565b606091505b5091509150816116e1576040517f08c379a00000000000000000000000000000000000000000000000000000000081526004016116d890611f52565b60405180910390fd5b8360070160008154809291906116f690612407565b9190505550809450505050505b919050565b6000808211801561171b57506002548211155b61175a576040517f08c379a000000000000000000000000000000000000000000000000000000000815260040161175190611f12565b60405180910390fd5b60036000838152602001908152602001600020600a01805490509050919050565b6000808311801561178e57506002548311155b6117cd576040517f08c379a00000000000000000000000000000000000000000000000000000000081526004016117c490611f12565b60405180910390fd5b600060036000858152602001908152602001600020600a01838154811061181d577f4e487b7100000000000000000000000000000000000000000000000000000000600052603260045260246000fd5b9060005260206000200160009054906101000a900473ffffffffffffffffffffffffffffffffffffffff1690508091505092915050565b60008054906101000a900473ffffffffffffffffffffffffffffffffffffffff1681565b600060036000848152602001908152602001600020600b0160008373ffffffffffffffffffffffffffffffffffffffff1673ffffffffffffffffffffffffffffffffffffffff16815260200190815260200160002054905092915050565b828054828255906000526020600020908101928215611912579160200282015b828111156119115782518255916020019190600101906118f6565b5b50905061191f91906119a9565b5090565b82805461192f906123a4565b90600052602060002090601f0160209004810192826119515760008555611998565b82601f1061196a57805160ff1916838001178555611998565b82800160010185558215611998579182015b8281111561199757825182559160200191906001019061197c565b5b5090506119a591906119c6565b5090565b5b808211156119c25760008160009055506001016119aa565b5090565b5b808211156119df5760008160009055506001016119c7565b5090565b60006119f66119f1846121b0565b61218b565b905082815260208101848484011115611a0e57600080fd5b611a19848285612362565b509392505050565b600081359050611a3081612752565b92915050565b600081359050611a4581612769565b92915050565b600082601f830112611a5c57600080fd5b8135611a6c8482602086016119e3565b91505092915050565b600081359050611a8481612780565b92915050565b60008060008060808587031215611aa057600080fd5b600085013567ffffffffffffffff811115611aba57600080fd5b611ac687828801611a4b565b945050602085013567ffffffffffffffff811115611ae357600080fd5b611aef87828801611a4b565b9350506040611b0087828801611a75565b9250506060611b1187828801611a36565b91505092959194509250565b600060208284031215611b2f57600080fd5b6000611b3d84828501611a75565b91505092915050565b60008060408385031215611b5957600080fd5b6000611b6785828601611a75565b9250506020611b7885828601611a21565b9150509250929050565b60008060408385031215611b9557600080fd5b6000611ba385828601611a75565b9250506020611bb485828601611a75565b9150509250929050565b611bc78161231a565b82525050565b611bd68161232c565b82525050565b6000611be7826121f6565b611bf1818561220c565b9350611c01818560208601612371565b611c0a8161250c565b840191505092915050565b6000611c2082612201565b611c2a8185612228565b9350611c3a818560208601612371565b611c438161250c565b840191505092915050565b60008154611c5b816123a4565b611c658186612228565b94506001821660008114611c805760018114611c9257611cc5565b60ff1983168652602086019350611cc5565b611c9b856121e1565b60005b83811015611cbd57815481890152600182019150602081019050611c9e565b808801955050505b50505092915050565b6000611cdb601883612228565b9150611ce68261251d565b602082019050919050565b6000611cfe604d83612228565b9150611d0982612546565b606082019050919050565b6000611d21601383612228565b9150611d2c826125bb565b602082019050919050565b6000611d44600f83612228565b9150611d4f826125e4565b602082019050919050565b6000611d67601383612228565b9150611d728261260d565b602082019050919050565b6000611d8a601683612228565b9150611d9582612636565b602082019050919050565b6000611dad60008361221d565b9150611db88261265f565b600082019050919050565b6000611dd0602283612228565b9150611ddb82612662565b604082019050919050565b6000611df3601783612228565b9150611dfe826126b1565b602082019050919050565b6000611e16602d83612228565b9150611e21826126da565b604082019050919050565b6000611e39600e83612228565b9150611e4482612729565b602082019050919050565b611e5881612358565b82525050565b6000611e6982611da0565b9150819050919050565b6000602082019050611e886000830184611bbe565b92915050565b60006020820190508181036000830152611ea88184611bdc565b905092915050565b60006020820190508181036000830152611eca8184611c15565b905092915050565b60006020820190508181036000830152611eeb81611cce565b9050919050565b60006020820190508181036000830152611f0b81611cf1565b9050919050565b60006020820190508181036000830152611f2b81611d14565b9050919050565b60006020820190508181036000830152611f4b81611d37565b9050919050565b60006020820190508181036000830152611f6b81611d5a565b9050919050565b60006020820190508181036000830152611f8b81611d7d565b9050919050565b60006020820190508181036000830152611fab81611dc3565b9050919050565b60006020820190508181036000830152611fcb81611de6565b9050919050565b60006020820190508181036000830152611feb81611e09565b9050919050565b6000602082019050818103600083015261200b81611e2c565b9050919050565b60006020820190506120276000830184611e4f565b92915050565b60006080820190506120426000830187611e4f565b81810360208301526120548186611c15565b905081810360408301526120688185611c15565b90506120776060830184611bbe565b95945050505050565b600061014082019050612096600083018d611e4f565b81810360208301526120a8818c611c15565b905081810360408301526120bc818b611c15565b90506120cb606083018a611e4f565b6120d86080830189611e4f565b6120e560a0830188611bbe565b6120f260c0830187611bbe565b6120ff60e0830186611e4f565b61210d610100830185611bcd565b61211b610120830184611e4f565b9b9a5050505050505050505050565b600060a08201905061213f6000830188611e4f565b81810360208301526121518187611c4e565b905081810360408301526121658186611c4e565b90506121746060830185611e4f565b6121816080830184611bbe565b9695505050505050565b60006121956121a6565b90506121a182826123d6565b919050565b6000604051905090565b600067ffffffffffffffff8211156121cb576121ca6124dd565b5b6121d48261250c565b9050602081019050919050565b60008190508160005260206000209050919050565b600081519050919050565b600081519050919050565b600082825260208201905092915050565b600081905092915050565b600082825260208201905092915050565b600061224482612358565b915061224f83612358565b9250827fffffffffffffffffffffffffffffffffffffffffffffffffffffffffffffffff0382111561228457612283612450565b5b828201905092915050565b600061229a82612358565b91506122a583612358565b9250826122b5576122b461247f565b5b828204905092915050565b60006122cb82612358565b91506122d683612358565b9250817fffffffffffffffffffffffffffffffffffffffffffffffffffffffffffffffff048311821515161561230f5761230e612450565b5b828202905092915050565b600061232582612338565b9050919050565b60008115159050919050565b600073ffffffffffffffffffffffffffffffffffffffff82169050919050565b6000819050919050565b82818337600083830152505050565b60005b8381101561238f578082015181840152602081019050612374565b8381111561239e576000848401525b50505050565b600060028204905060018216806123bc57607f821691505b602082108114156123d0576123cf6124ae565b5b50919050565b6123df8261250c565b810181811067ffffffffffffffff821117156123fe576123fd6124dd565b5b80604052505050565b600061241282612358565b91507fffffffffffffffffffffffffffffffffffffffffffffffffffffffffffffffff82141561244557612444612450565b5b600182019050919050565b7f4e487b7100000000000000000000000000000000000000000000000000000000600052601160045260246000fd5b7f4e487b7100000000000000000000000000000000000000000000000000000000600052601260045260246000fd5b7f4e487b7100000000000000000000000000000000000000000000000000000000600052602260045260246000fd5b7f4e487b7100000000000000000000000000000000000000000000000000000000600052604160045260246000fd5b6000601f19601f8301169050919050565b7f796f757420617265206e6f7420617574686f72697a6564210000000000000000600082015250565b7f596f7572206f7264657220616c726561647920686173206265656e206c6f636b60008201527f65642120706c656173652064656c657465206f6c64206f7264657220616e642060208201527f6372656174696e67206e65772e00000000000000000000000000000000000000604082015250565b7f6e6f742076616c696420696d6167652069642100000000000000000000000000600082015250565b7f4e6f206f7264657220666f756e64210000000000000000000000000000000000600082015250565b7f4661696c656420746f2073656e64204554482100000000000000000000000000600082015250565b7f696d616765206861736820697320726571756972656400000000000000000000600082015250565b50565b7f6d696e696d756d2073656c6c696e67207072696365206973207265717569726560008201527f6421000000000000000000000000000000000000000000000000000000000000602082015250565b7f6465736372697074696f6e206973207265717569726564000000000000000000600082015250565b7f70726963652073686f756c64206265206265747765656e203020616e6420657860008201527f7065637465642070726963652100000000000000000000000000000000000000602082015250565b7f57726f6e67204164647265737321000000000000000000000000000000000000600082015250565b61275b8161231a565b811461276657600080fd5b50565b6127728161232c565b811461277d57600080fd5b50565b61278981612358565b811461279457600080fd5b5056fea2646970667358221220e2e0625e1506c09e60e26c086ef88074ddaaae396d59ede0bc50f10ea8175ec164736f6c63430008040033",
  "immutableReferences": {},
  "source": "// SPDX-License-Identifier: MIT\npragma solidity ^0.8.4;\n\ncontract SnapDapp {\n  address public contractOwner; // from solidity 0.8.0 we don't need to declare the address as payable explicitly, but when you rare transferring an amount to such address. \n  string public name = \"SnapDapp\";\n\n  constructor(address _ownerAddress){\n      contractOwner = _ownerAddress;\n  }\n\n\n  struct Image{\n      uint id;\n      string hash;\n      string description;\n      uint tipAmount;\n      uint minSellingPrice;\n      address author; \n      address imgOwner; \n      uint bidderCount;\n      bool wantToSell;\n      uint boughtCount;\n      address[] buyers;\n      mapping(address => uint) requests; // buying requests with buyer address and paid amount\n      mapping(address => uint) tippedBy; // it will contain address of the people who tipped with amount\n      mapping(uint => bytes32[]) boughtAt; // number of times it has beed bought and array with address and amount // FIXME: also with time \n  }\n  \n  \n  uint public imageCount = 0;\n\n  // store Images \n  mapping(uint => Image) public images;\n\n  \n  modifier restricted() {\n    require(\n      msg.sender == contractOwner,\n      \"This function is restricted to the contract's owner\"\n    );\n    _;\n  }\n  \n        /*\n    Which function is called, fallback() or receive()?\n\n           send Ether\n               |\n         msg.data is empty?\n              / \\\n            yes  no\n            /     \\\nreceive() exists?  fallback()\n         /   \\\n        yes   no\n        /      \\\n    receive()   fallback()\n    */\n    \n    // functon to receive ETH. msg.data must be empty\n    receive() external payable {}\n    \n    // fallback function is called when msg.data is not empty\n    fallback() external payable {}\n    \n    function getBalance() public view returns(uint){\n        return address(this).balance;\n    }\n\n  // event to emit when image is posted\n    event ImagePosted(\n        uint id,\n        string hash, \n        string description,\n        address author\n    );\n\n  // event to emit when image is tipped\n    event ImageTipped(\n        uint id,\n        string hash, \n        string description,\n        uint tipAmount,\n        address author\n    );\n\n  // event to emit when image is bought\n    event ImageBought(\n        uint id,\n        string hash, \n        string description,\n        uint tipAmount,\n        uint minSellingPrice,\n        address author,\n        address imgOwner\n    );\n\n    // post image\n    function uploadImage(string memory _imgHash, string memory _description,  uint _minSellingPrice, bool _wantToSell) public{\n\n        // make sure image hash exists\n        require(bytes(_imgHash).length > 0, \"image hash is required\");\n        // console.log(bytes(_imgHash));\n\n        // make sure image description exists\n        require(bytes(_description).length > 0, \"description is required\");\n\n        // make sure minimum selling price exists\n        require(_minSellingPrice > 0, \"minimum selling price is required!\");\n\n        // make sure uploader address exists\n        require(msg.sender != address(0x0), \"Wrong Address!\");\n        \n\n        // increment image id\n        imageCount++;\n\n        ////TYPE ERROR:  we cannot do like this:  because Image type variable contains nested mapping\n        // images[imageCount] = Image( \n        //     imageCount, \n        //     _imgHash, \n        //     _description, \n        //     0, \n        //     _minSellingPrice, \n        //     msg.sender, \n        //     msg.sender\n        // );\n        \n        \n        // add image to contract \n        Image storage newImage = images[imageCount];\n        newImage.id = imageCount;\n        newImage.hash = _imgHash;\n        newImage.description = _description;\n        newImage.tipAmount = 0;\n        newImage.minSellingPrice = _minSellingPrice;\n        newImage.author = msg.sender;\n        newImage.imgOwner = msg.sender;\n        newImage.wantToSell = _wantToSell;\n        \n        emit ImagePosted(\n            imageCount, \n            _imgHash, \n            _description, \n            msg.sender\n        );\n    }\n    \n    // tip image owner\n    function tipImageOwner(uint _id) public payable{\n    \n        // make sure given id is valid\n        require(_id > 0 && _id <= imageCount);\n        \n        \n        // fetch the image\n        // Image memory _image = images[_id];\n\n        Image storage _image = images[_id]; // saved in storage because I will work directly on it, not on the copy of it\n        \n        // fetch the author\n        address _author = _image.author;\n        \n        // fetch the current image owner\n        address _imgOwner = _image.imgOwner;\n        \n        // tip the author by sending some ether\n        uint _authorReward = (msg.value * 20)/100;  // 20%\n        uint _ownerReward = (msg.value * 80)/100;   // 80%\n        \n        // here 20% of amount will be transferred to imgAuthor and 80% amount will be transferred to ImageOwner\n        \n        // check if author and imgOwner are same or different \n        if(_author != _imgOwner){\n            payable(_author).transfer(_authorReward);\n            payable(_imgOwner).transfer(_ownerReward);\n        }\n        else{\n            payable(_author).transfer(msg.value);\n        }\n        \n        // increament the tip amount of the image\n        _image.tipAmount += msg.value;\n        \n        // now add tipper in the mapping of tippedBy with tipped amount\n        _image.tippedBy[msg.sender] += msg.value;\n        \n        \n        emit ImageTipped(\n            _id, \n            _image.hash, \n            _image.description, \n            _image.tipAmount, \n            _author\n        );\n    }\n    \n    \n    \n    \n    // make a request for buying image\n    function buyImageRequest(uint _id) public payable returns(bytes memory){\n        // make sure given id is valid\n        require(_id > 0 && _id <= imageCount);\n        \n        // fetch the image\n        Image storage _image = images[_id];\n        \n        // fetch the current image owner\n        address _imgOwner = _image.imgOwner;\n        \n        require(msg.value <= _image.minSellingPrice && msg.value > 0, \"price should be between 0 and expected price!\");\n        \n        // check if buyer has already locked an order or not\n        require(_image.requests[msg.sender] == 0, \"Your order already has been locked! please delete old order and creating new.\");\n        \n        // if buyer's offered price is equal or more than the seller's expected price then transfer money to the current owner and directly change owner\n        \n        if(_image.minSellingPrice <= msg.value && _image.wantToSell){\n            // check if image is for sale or not\n        \n            //// transfer money directly to the owner\n            //payable(_imgOwner).transfer(msg.value); //this method id not longer allowed for transferring ETH\n        \n            //// Call returns a boolean value indicating success or failure.\n            (bool sent, bytes memory data) = payable(_imgOwner).call{value: msg.value}(\"\");\n            \n            require(sent, \"Failed to send ETH!\");\n            \n            \n            // now change owner\n            _image.imgOwner = msg.sender;\n            \n            // now remove from sale\n            _image.wantToSell = false;\n            \n            _image.boughtCount++;\n            \n            _image.boughtAt[_image.boughtCount] = [bytes32(uint256(uint160(msg.sender))), bytes32(msg.value)];\n            \n            _image.bidderCount++; \n            \n            _image.requests[msg.sender] = 0; \n            \n            return data;\n        }else{\n            // create and lock order for buying image at given value\n            _image.requests[msg.sender] = msg.value;  \n            \n            // address[] memory _buyersList = _image.buyers;\n\n            _image.buyers.push(msg.sender);\n            \n            \n            // lock amount in the contract \n            (bool sent, bytes memory data) = payable(this).call{value: msg.value}(\"\");\n            \n            require(sent, \"Failed to send ETH!\");\n            \n            _image.bidderCount++; \n            return data;\n        }\n    }\n    \n    // get request \n    function getRequest(uint _id, address _address) public view returns(uint){\n        return images[_id].requests[_address];\n    } \n    \n    \n    // TODO: remove auction option from image\n    function removeFromSale(uint _id) public{\n                // make sure given id is valid\n        require(_id > 0 && _id <= imageCount);\n        \n        // fetch the image\n        Image storage _image = images[_id];\n        \n        require(msg.sender == _image.imgOwner, \"yout are not authorized!\");\n        \n        _image.wantToSell = false;\n    }\n    \n    function getBuyersFromList(uint _imgId, uint _index) public view returns(address){\n        // make sure given id is valid\n        require(_imgId > 0 && _imgId <= imageCount, \"not valid image id!\");\n        \n        address currentBuyer = images[_imgId].buyers[_index];\n        \n        return currentBuyer;\n    }\n    \n    function getTotalBuyers(uint _imgId) public view returns(uint){\n        // make sure given id is valid\n        require(_imgId > 0 && _imgId <= imageCount, \"not valid image id!\");\n        \n        return images[_imgId].buyers.length;\n    }\n    \n    \n    \n    // change the selling price \n    function changePriceOrSell(uint _id, uint _minSellingPrice) public{\n                // make sure given id is valid\n        require(_id > 0 && _id <= imageCount);\n        \n        // fetch the image\n        Image storage _image = images[_id];\n        \n        require(msg.sender == _image.imgOwner, \"yout are not authorized!\");\n        \n        if(!_image.wantToSell){\n            _image.wantToSell = true;\n        }\n\n        _image.minSellingPrice = _minSellingPrice;\n        \n        address[] memory _buyersList = _image.buyers;\n        uint buyersLen = _buyersList.length;\n        bool buyerAvailable = false;\n        uint i = 0;\n        \n        // check in the requests if someone wants to buy this image or not at expected price, if yes then sell the image\n        while(i < buyersLen && !buyerAvailable){\n            \n            address currentAddr = _buyersList[i];\n            \n            \n            if(_image.requests[currentAddr] == _minSellingPrice){\n                buyerAvailable = true;\n            \n                // transfer money from contract now.\n                (bool sent, bytes memory data) = payable(_image.imgOwner).call{value: _minSellingPrice}(\"\");\n                \n                require(sent, \"Failed to send ETH!\");\n                \n                \n                // now change owner\n                _image.imgOwner = currentAddr;\n                \n                // now remove from sale\n                _image.wantToSell = false;\n                \n                _image.boughtCount++;\n                \n                _image.boughtAt[_image.boughtCount] = [bytes32(uint256(uint160(currentAddr))), bytes32(_minSellingPrice)];\n                \n                _image.requests[currentAddr] = 0; \n            }\n            i++;\n        }\n        \n    }\n    \n    \n    // TODO: Delete order and get refund\n    \n    function removeOrder(uint _imgId) public returns (bytes memory){ \n        require(_imgId > 0 && _imgId <= imageCount);\n        \n        // fetch the image\n        Image storage _image = images[_imgId];\n        \n        // check if this user is available or not \n        require(_image.requests[msg.sender] != 0, 'No order found!');\n        \n        // transfer money from contract now.\n        (bool sent, bytes memory data) = payable(msg.sender).call{value: _image.requests[msg.sender]}(\"\");\n                \n        require(sent, \"Failed to send ETH!\");\n        \n        _image.requests[msg.sender] = 0;\n\n        return data;\n    }\n}\n\n\n\n\n\n\n\n\n",
  "sourcePath": "/Users/aloora/Documents/snap_dapp/contracts/SnapDapp.sol",
  "compiler": {
    "name": "solc",
    "version": "0.8.4+commit.c7e474f2.Emscripten.clang"
  },
  "schemaVersion": "3.4.1",
  "updatedAt": "2021-08-09T07:14:07.356Z",
  "networkType": "ethereum",
  "devdoc": {
    "kind": "dev",
    "methods": {},
    "version": 1
  },
  "userdoc": {
    "kind": "user",
    "methods": {},
    "version": 1
  }
}