{
  "contractName": "SnapDapp",
  "abi": [
    {
      "inputs": [
        {
          "internalType": "address",
          "name": "_ownerAddress",
          "type": "address"
        }
      ],
      "stateMutability": "nonpayable",
      "type": "constructor"
    },
    {
      "anonymous": false,
      "inputs": [
        {
          "indexed": false,
          "internalType": "string",
          "name": "msg",
          "type": "string"
        },
        {
          "indexed": false,
          "internalType": "address",
          "name": "imgOwner",
          "type": "address"
        }
      ],
      "name": "ChangePriceOrSell",
      "type": "event"
    },
    {
      "anonymous": false,
      "inputs": [
        {
          "indexed": false,
          "internalType": "string",
          "name": "msg",
          "type": "string"
        },
        {
          "indexed": false,
          "internalType": "string",
          "name": "actionType",
          "type": "string"
        }
      ],
      "name": "ImageBought",
      "type": "event"
    },
    {
      "anonymous": false,
      "inputs": [
        {
          "indexed": false,
          "internalType": "uint256",
          "name": "id",
          "type": "uint256"
        },
        {
          "indexed": false,
          "internalType": "string",
          "name": "hash",
          "type": "string"
        },
        {
          "indexed": false,
          "internalType": "string",
          "name": "description",
          "type": "string"
        },
        {
          "indexed": false,
          "internalType": "address",
          "name": "author",
          "type": "address"
        }
      ],
      "name": "ImagePosted",
      "type": "event"
    },
    {
      "anonymous": false,
      "inputs": [
        {
          "indexed": false,
          "internalType": "string",
          "name": "msg",
          "type": "string"
        },
        {
          "indexed": false,
          "internalType": "string",
          "name": "actionType",
          "type": "string"
        }
      ],
      "name": "ImageRequest",
      "type": "event"
    },
    {
      "anonymous": false,
      "inputs": [
        {
          "indexed": false,
          "internalType": "uint256",
          "name": "id",
          "type": "uint256"
        },
        {
          "indexed": false,
          "internalType": "string",
          "name": "hash",
          "type": "string"
        },
        {
          "indexed": false,
          "internalType": "string",
          "name": "description",
          "type": "string"
        },
        {
          "indexed": false,
          "internalType": "uint256",
          "name": "tipAmount",
          "type": "uint256"
        },
        {
          "indexed": false,
          "internalType": "address",
          "name": "author",
          "type": "address"
        }
      ],
      "name": "ImageTipped",
      "type": "event"
    },
    {
      "stateMutability": "payable",
      "type": "fallback",
      "payable": true
    },
    {
      "inputs": [],
      "name": "contractOwner",
      "outputs": [
        {
          "internalType": "address",
          "name": "",
          "type": "address"
        }
      ],
      "stateMutability": "view",
      "type": "function",
      "constant": true
    },
    {
      "inputs": [],
      "name": "imageCount",
      "outputs": [
        {
          "internalType": "uint256",
          "name": "",
          "type": "uint256"
        }
      ],
      "stateMutability": "view",
      "type": "function",
      "constant": true
    },
    {
      "inputs": [
        {
          "internalType": "uint256",
          "name": "",
          "type": "uint256"
        }
      ],
      "name": "images",
      "outputs": [
        {
          "internalType": "uint256",
          "name": "id",
          "type": "uint256"
        },
        {
          "internalType": "string",
          "name": "hash",
          "type": "string"
        },
        {
          "internalType": "string",
          "name": "description",
          "type": "string"
        },
        {
          "internalType": "uint256",
          "name": "tipAmount",
          "type": "uint256"
        },
        {
          "internalType": "uint256",
          "name": "minSellingPrice",
          "type": "uint256"
        },
        {
          "internalType": "address",
          "name": "author",
          "type": "address"
        },
        {
          "internalType": "address",
          "name": "imgOwner",
          "type": "address"
        },
        {
          "internalType": "uint256",
          "name": "bidderCount",
          "type": "uint256"
        },
        {
          "internalType": "bool",
          "name": "wantToSell",
          "type": "bool"
        },
        {
          "internalType": "uint256",
          "name": "boughtCount",
          "type": "uint256"
        }
      ],
      "stateMutability": "view",
      "type": "function",
      "constant": true
    },
    {
      "inputs": [],
      "name": "name",
      "outputs": [
        {
          "internalType": "string",
          "name": "",
          "type": "string"
        }
      ],
      "stateMutability": "view",
      "type": "function",
      "constant": true
    },
    {
      "inputs": [
        {
          "internalType": "address",
          "name": "",
          "type": "address"
        }
      ],
      "name": "orders",
      "outputs": [
        {
          "internalType": "address",
          "name": "imgOwner",
          "type": "address"
        }
      ],
      "stateMutability": "view",
      "type": "function",
      "constant": true
    },
    {
      "stateMutability": "payable",
      "type": "receive",
      "payable": true
    },
    {
      "inputs": [],
      "name": "getBalance",
      "outputs": [
        {
          "internalType": "uint256",
          "name": "",
          "type": "uint256"
        }
      ],
      "stateMutability": "view",
      "type": "function",
      "constant": true
    },
    {
      "inputs": [
        {
          "internalType": "string",
          "name": "_imgHash",
          "type": "string"
        },
        {
          "internalType": "string",
          "name": "_description",
          "type": "string"
        },
        {
          "internalType": "uint256",
          "name": "_minSellingPrice",
          "type": "uint256"
        },
        {
          "internalType": "bool",
          "name": "_wantToSell",
          "type": "bool"
        }
      ],
      "name": "uploadImage",
      "outputs": [],
      "stateMutability": "nonpayable",
      "type": "function"
    },
    {
      "inputs": [
        {
          "internalType": "uint256",
          "name": "_id",
          "type": "uint256"
        }
      ],
      "name": "tipImageOwner",
      "outputs": [],
      "stateMutability": "payable",
      "type": "function",
      "payable": true
    },
    {
      "inputs": [
        {
          "internalType": "uint256",
          "name": "_id",
          "type": "uint256"
        }
      ],
      "name": "buyImageRequest",
      "outputs": [
        {
          "internalType": "bytes",
          "name": "",
          "type": "bytes"
        }
      ],
      "stateMutability": "payable",
      "type": "function",
      "payable": true
    },
    {
      "inputs": [
        {
          "internalType": "uint256",
          "name": "_id",
          "type": "uint256"
        },
        {
          "internalType": "address",
          "name": "_address",
          "type": "address"
        }
      ],
      "name": "getRequest",
      "outputs": [
        {
          "internalType": "uint256",
          "name": "",
          "type": "uint256"
        }
      ],
      "stateMutability": "view",
      "type": "function",
      "constant": true
    },
    {
      "inputs": [
        {
          "internalType": "uint256",
          "name": "_id",
          "type": "uint256"
        }
      ],
      "name": "removeFromSale",
      "outputs": [],
      "stateMutability": "nonpayable",
      "type": "function"
    },
    {
      "inputs": [
        {
          "internalType": "uint256",
          "name": "_imgId",
          "type": "uint256"
        },
        {
          "internalType": "uint256",
          "name": "_index",
          "type": "uint256"
        }
      ],
      "name": "getBuyersFromList",
      "outputs": [
        {
          "internalType": "address",
          "name": "",
          "type": "address"
        }
      ],
      "stateMutability": "view",
      "type": "function",
      "constant": true
    },
    {
      "inputs": [
        {
          "internalType": "uint256",
          "name": "_imgId",
          "type": "uint256"
        }
      ],
      "name": "getTotalBuyers",
      "outputs": [
        {
          "internalType": "uint256",
          "name": "",
          "type": "uint256"
        }
      ],
      "stateMutability": "view",
      "type": "function",
      "constant": true
    },
    {
      "inputs": [
        {
          "internalType": "uint256",
          "name": "_id",
          "type": "uint256"
        },
        {
          "internalType": "uint256",
          "name": "_minSellingPrice",
          "type": "uint256"
        }
      ],
      "name": "changePriceOrSell",
      "outputs": [],
      "stateMutability": "nonpayable",
      "type": "function"
    },
    {
      "inputs": [
        {
          "internalType": "uint256",
          "name": "_imgId",
          "type": "uint256"
        }
      ],
      "name": "removeOrder",
      "outputs": [
        {
          "internalType": "bytes",
          "name": "",
          "type": "bytes"
        }
      ],
      "stateMutability": "nonpayable",
      "type": "function"
    },
    {
      "inputs": [
        {
          "internalType": "address",
          "name": "_address",
          "type": "address"
        }
      ],
      "name": "getOrders",
      "outputs": [
        {
          "internalType": "uint256[]",
          "name": "",
          "type": "uint256[]"
        }
      ],
      "stateMutability": "view",
      "type": "function",
      "constant": true
    }
  ],
  "bytecode": "0x60806040526040518060400160405280600881526020017f536e6170446170700000000000000000000000000000000000000000000000008152506001908051906020019062000051929190620000d1565b5060006003553480156200006457600080fd5b50604051620034213803806200342183398181016040528101906200008a919062000198565b806000806101000a81548173ffffffffffffffffffffffffffffffffffffffff021916908373ffffffffffffffffffffffffffffffffffffffff1602179055505062000277565b828054620000df90620001f8565b90600052602060002090601f0160209004810192826200010357600085556200014f565b82601f106200011e57805160ff19168380011785556200014f565b828001600101855582156200014f579182015b828111156200014e57825182559160200191906001019062000131565b5b5090506200015e919062000162565b5090565b5b808211156200017d57600081600090555060010162000163565b5090565b60008151905062000192816200025d565b92915050565b600060208284031215620001ab57600080fd5b6000620001bb8482850162000181565b91505092915050565b6000620001d182620001d8565b9050919050565b600073ffffffffffffffffffffffffffffffffffffffff82169050919050565b600060028204905060018216806200021157607f821691505b602082108114156200022857620002276200022e565b5b50919050565b7f4e487b7100000000000000000000000000000000000000000000000000000000600052602260045260246000fd5b6200026881620001c4565b81146200027457600080fd5b50565b61319a80620002876000396000f3fe6080604052600436106100f75760003560e01c806392053b631161008a578063a2fd237d11610059578063a2fd237d14610345578063ce606ee014610382578063f40e8471146103ad578063fed65027146103ea576100fe565b806392053b63146102705780639645337a1461029b578063a066bcb4146102d8578063a078c20214610308576100fe565b806317407e48116100c657806317407e48146101bc57806375fafde1146101e5578063848564821461020e5780638567ade814610254576100fe565b806306fdde0314610100578063093376fe1461012b57806312065fe0146101685780631361a3b614610193576100fe565b366100fe57005b005b34801561010c57600080fd5b50610115610427565b6040516101229190612643565b60405180910390f35b34801561013757600080fd5b50610152600480360381019061014d9190612058565b6104b5565b60405161015f91906125ff565b60405180910390f35b34801561017457600080fd5b5061017d6105c0565b60405161018a9190612887565b60405180910390f35b34801561019f57600080fd5b506101ba60048036038101906101b59190612114565b6105c8565b005b3480156101c857600080fd5b506101e360048036038101906101de9190612179565b6106ad565b005b3480156101f157600080fd5b5061020c60048036038101906102079190612081565b610bb7565b005b34801561021a57600080fd5b5061023560048036038101906102309190612114565b610e5b565b60405161024b9a999897969594939291906128f5565b60405180910390f35b61026e60048036038101906102699190612114565b61100c565b005b34801561027c57600080fd5b5061028561129c565b6040516102929190612887565b60405180910390f35b3480156102a757600080fd5b506102c260048036038101906102bd9190612114565b6112a2565b6040516102cf9190612621565b60405180910390f35b6102f260048036038101906102ed9190612114565b611666565b6040516102ff9190612621565b60405180910390f35b34801561031457600080fd5b5061032f600480360381019061032a9190612114565b611c4b565b60405161033c9190612887565b60405180910390f35b34801561035157600080fd5b5061036c60048036038101906103679190612179565b611cbe565b60405161037991906125e4565b60405180910390f35b34801561038e57600080fd5b50610397611d97565b6040516103a491906125e4565b60405180910390f35b3480156103b957600080fd5b506103d460048036038101906103cf9190612058565b611dbb565b6040516103e191906125e4565b60405180910390f35b3480156103f657600080fd5b50610411600480360381019061040c919061213d565b611df9565b60405161041e9190612887565b60405180910390f35b6001805461043490612c52565b80601f016020809104026020016040519081016040528092919081815260200182805461046090612c52565b80156104ad5780601f10610482576101008083540402835291602001916104ad565b820191906000526020600020905b81548152906001019060200180831161049057829003601f168201915b505050505081565b60606000600260008473ffffffffffffffffffffffffffffffffffffffff1673ffffffffffffffffffffffffffffffffffffffff1681526020019081526020016000206040518060400160405290816000820160009054906101000a900473ffffffffffffffffffffffffffffffffffffffff1673ffffffffffffffffffffffffffffffffffffffff1673ffffffffffffffffffffffffffffffffffffffff168152602001600182018054806020026020016040519081016040528092919081815260200182805480156105a857602002820191906000526020600020905b815481526020019060010190808311610594575b50505050508152505090508060200151915050919050565b600047905090565b6000811180156105da57506003548111155b6105e357600080fd5b60006004600083815260200190815260200160002090508060060160009054906101000a900473ffffffffffffffffffffffffffffffffffffffff1673ffffffffffffffffffffffffffffffffffffffff163373ffffffffffffffffffffffffffffffffffffffff161461068c576040517f08c379a000000000000000000000000000000000000000000000000000000000815260040161068390612665565b60405180910390fd5b60008160080160006101000a81548160ff0219169083151502179055505050565b6000821180156106bf57506003548211155b6106c857600080fd5b60006004600084815260200190815260200160002090508060060160009054906101000a900473ffffffffffffffffffffffffffffffffffffffff1673ffffffffffffffffffffffffffffffffffffffff163373ffffffffffffffffffffffffffffffffffffffff1614610771576040517f08c379a0000000000000000000000000000000000000000000000000000000008152600401610768906127b9565b60405180910390fd5b8060080160009054906101000a900460ff166107a55760018160080160006101000a81548160ff0219169083151502179055505b818160040181905550600081600a0180548060200260200160405190810160405280929190818152602001828054801561083457602002820191906000526020600020905b8160009054906101000a900473ffffffffffffffffffffffffffffffffffffffff1673ffffffffffffffffffffffffffffffffffffffff16815260200190600101908083116107ea575b505050505090506000815190506000805b8281108015610852575081155b15610aec576000848281518110610892577f4e487b7100000000000000000000000000000000000000000000000000000000600052603260045260246000fd5b602002602001015190508686600b0160008373ffffffffffffffffffffffffffffffffffffffff1673ffffffffffffffffffffffffffffffffffffffff168152602001908152602001600020541415610ad857600192506000808760060160009054906101000a900473ffffffffffffffffffffffffffffffffffffffff1673ffffffffffffffffffffffffffffffffffffffff1689604051610934906125cf565b60006040518083038185875af1925050503d8060008114610971576040519150601f19603f3d011682016040523d82523d6000602084013e610976565b606091505b5091509150816109bb576040517f08c379a00000000000000000000000000000000000000000000000000000000081526004016109b290612779565b60405180910390fd5b828860060160006101000a81548173ffffffffffffffffffffffffffffffffffffffff021916908373ffffffffffffffffffffffffffffffffffffffff16021790555060008860080160006101000a81548160ff021916908315150217905550876009016000815480929190610a3090612cb5565b919050555060405180604001604052808473ffffffffffffffffffffffffffffffffffffffff1660001b81526020018a60001b81525088600d0160008a600901548152602001908152602001600020906002610a8d929190611e57565b50600088600b0160008573ffffffffffffffffffffffffffffffffffffffff1673ffffffffffffffffffffffffffffffffffffffff1681526020019081526020016000208190555050505b8180610ae390612cb5565b92505050610845565b8115610b52577f7ba53f2473cf705941b94d9e40ac121541cd13fc782b58c7d2c92b3beaacf6e18560060160009054906101000a900473ffffffffffffffffffffffffffffffffffffffff16604051610b4591906126d8565b60405180910390a1610bae565b7f7ba53f2473cf705941b94d9e40ac121541cd13fc782b58c7d2c92b3beaacf6e18560060160009054906101000a900473ffffffffffffffffffffffffffffffffffffffff16604051610ba591906127d9565b60405180910390a15b50505050505050565b6000845111610bfb576040517f08c379a0000000000000000000000000000000000000000000000000000000008152600401610bf290612799565b60405180910390fd5b6000835111610c3f576040517f08c379a0000000000000000000000000000000000000000000000000000000008152600401610c3690612827565b60405180910390fd5b60008211610c82576040517f08c379a0000000000000000000000000000000000000000000000000000000008152600401610c7990612807565b60405180910390fd5b600073ffffffffffffffffffffffffffffffffffffffff163373ffffffffffffffffffffffffffffffffffffffff161415610cf2576040517f08c379a0000000000000000000000000000000000000000000000000000000008152600401610ce990612867565b60405180910390fd5b60036000815480929190610d0590612cb5565b919050555060006004600060035481526020019081526020016000209050600354816000018190555084816001019080519060200190610d46929190611ea4565b5083816002019080519060200190610d5f929190611ea4565b5060008160030181905550828160040181905550338160050160006101000a81548173ffffffffffffffffffffffffffffffffffffffff021916908373ffffffffffffffffffffffffffffffffffffffff160217905550338160060160006101000a81548173ffffffffffffffffffffffffffffffffffffffff021916908373ffffffffffffffffffffffffffffffffffffffff160217905550818160080160006101000a81548160ff0219169083151502179055507f709f171064f6966d61c19526a2daf07d69a02f0370b63549254e5588e6352a16600354868633604051610e4c94939291906128a2565b60405180910390a15050505050565b6004602052806000526040600020600091509050806000015490806001018054610e8490612c52565b80601f0160208091040260200160405190810160405280929190818152602001828054610eb090612c52565b8015610efd5780601f10610ed257610100808354040283529160200191610efd565b820191906000526020600020905b815481529060010190602001808311610ee057829003601f168201915b505050505090806002018054610f1290612c52565b80601f0160208091040260200160405190810160405280929190818152602001828054610f3e90612c52565b8015610f8b5780601f10610f6057610100808354040283529160200191610f8b565b820191906000526020600020905b815481529060010190602001808311610f6e57829003601f168201915b5050505050908060030154908060040154908060050160009054906101000a900473ffffffffffffffffffffffffffffffffffffffff16908060060160009054906101000a900473ffffffffffffffffffffffffffffffffffffffff16908060070154908060080160009054906101000a900460ff1690806009015490508a565b60008111801561101e57506003548111155b61102757600080fd5b600060046000838152602001908152602001600020905060008160050160009054906101000a900473ffffffffffffffffffffffffffffffffffffffff16905060008260060160009054906101000a900473ffffffffffffffffffffffffffffffffffffffff169050600060646014346110a19190612b6e565b6110ab9190612b3d565b9050600060646050346110be9190612b6e565b6110c89190612b3d565b90508273ffffffffffffffffffffffffffffffffffffffff168473ffffffffffffffffffffffffffffffffffffffff1614611190578373ffffffffffffffffffffffffffffffffffffffff166108fc839081150290604051600060405180830381858888f19350505050158015611143573d6000803e3d6000fd5b508273ffffffffffffffffffffffffffffffffffffffff166108fc829081150290604051600060405180830381858888f1935050505015801561118a573d6000803e3d6000fd5b506111d8565b8373ffffffffffffffffffffffffffffffffffffffff166108fc349081150290604051600060405180830381858888f193505050501580156111d6573d6000803e3d6000fd5b505b348560030160008282546111ec9190612ae7565b925050819055503485600c0160003373ffffffffffffffffffffffffffffffffffffffff1673ffffffffffffffffffffffffffffffffffffffff16815260200190815260200160002060008282546112449190612ae7565b925050819055507f1be5317bca8d3f70dc1efe89958be71bff36cdca33fc00a6423e25eb2f1d492f86866001018760020188600301548860405161128c95949392919061299f565b60405180910390a1505050505050565b60035481565b60606000821180156112b657506003548211155b6112bf57600080fd5b6000600460008481526020019081526020016000209050600081600b0160003373ffffffffffffffffffffffffffffffffffffffff1673ffffffffffffffffffffffffffffffffffffffff16815260200190815260200160002054141561135b576040517f08c379a000000000000000000000000000000000000000000000000000000000815260040161135290612726565b60405180910390fd5b6000803373ffffffffffffffffffffffffffffffffffffffff1683600b0160003373ffffffffffffffffffffffffffffffffffffffff1673ffffffffffffffffffffffffffffffffffffffff168152602001908152602001600020546040516113c3906125cf565b60006040518083038185875af1925050503d8060008114611400576040519150601f19603f3d011682016040523d82523d6000602084013e611405565b606091505b50915091508161144a576040517f08c379a000000000000000000000000000000000000000000000000000000000815260040161144190612779565b60405180910390fd5b600083600b0160003373ffffffffffffffffffffffffffffffffffffffff1673ffffffffffffffffffffffffffffffffffffffff168152602001908152602001600020819055506000600260003373ffffffffffffffffffffffffffffffffffffffff1673ffffffffffffffffffffffffffffffffffffffff168152602001908152602001600020905060008160010180548060200260200160405190810160405280929190818152602001828054801561152457602002820191906000526020600020905b815481526020019060010190808311611510575b5050505050905060008260010180548060200260200160405190810160405280929190818152602001828054801561157b57602002820191906000526020600020905b815481526020019060010190808311611567575b5050505050905060005b815181101561165657888282815181106115c8577f4e487b7100000000000000000000000000000000000000000000000000000000600052603260045260246000fd5b602002602001015114156116435782818151811061160f577f4e487b7100000000000000000000000000000000000000000000000000000000600052603260045260246000fd5b60200260200101600081525082846001019080519060200190611633929190611f2a565b5084975050505050505050611661565b808061164e90612cb5565b915050611585565b508396505050505050505b919050565b606060008211801561167a57506003548211155b61168357600080fd5b600060046000848152602001908152602001600020905060008160060160009054906101000a900473ffffffffffffffffffffffffffffffffffffffff169050816004015434111580156116d75750600034115b611716576040517f08c379a000000000000000000000000000000000000000000000000000000000815260040161170d90612847565b60405180910390fd5b600082600b0160003373ffffffffffffffffffffffffffffffffffffffff1673ffffffffffffffffffffffffffffffffffffffff168152602001908152602001600020541461179a576040517f08c379a000000000000000000000000000000000000000000000000000000000815260040161179190612685565b60405180910390fd5b348260040154111580156117bc57508160080160009054906101000a900460ff165b156119e4576000808273ffffffffffffffffffffffffffffffffffffffff16346040516117e8906125cf565b60006040518083038185875af1925050503d8060008114611825576040519150601f19603f3d011682016040523d82523d6000602084013e61182a565b606091505b50915091508161186f576040517f08c379a000000000000000000000000000000000000000000000000000000000815260040161186690612779565b60405180910390fd5b338460060160006101000a81548173ffffffffffffffffffffffffffffffffffffffff021916908373ffffffffffffffffffffffffffffffffffffffff16021790555060008460080160006101000a81548160ff0219169083151502179055508360090160008154809291906118e490612cb5565b919050555060405180604001604052803373ffffffffffffffffffffffffffffffffffffffff1660001b81526020013460001b81525084600d01600086600901548152602001908152602001600020906002611941929190611e57565b5083600701600081548092919061195790612cb5565b9190505550600084600b0160003373ffffffffffffffffffffffffffffffffffffffff1673ffffffffffffffffffffffffffffffffffffffff168152602001908152602001600020819055507f34e491eb66ee304c70fcdaf23372612d2a0ea85b4c09131fce364bc1d85522206040516119d090612746565b60405180910390a180945050505050611c46565b3482600b0160003373ffffffffffffffffffffffffffffffffffffffff1673ffffffffffffffffffffffffffffffffffffffff1681526020019081526020016000208190555081600a01339080600181540180825580915050600190039060005260206000200160009091909190916101000a81548173ffffffffffffffffffffffffffffffffffffffff021916908373ffffffffffffffffffffffffffffffffffffffff1602179055506000803073ffffffffffffffffffffffffffffffffffffffff1634604051611ab6906125cf565b60006040518083038185875af1925050503d8060008114611af3576040519150601f19603f3d011682016040523d82523d6000602084013e611af8565b606091505b509150915081611b3d576040517f08c379a0000000000000000000000000000000000000000000000000000000008152600401611b3490612779565b60405180910390fd5b836007016000815480929190611b5290612cb5565b91905055506000600260003373ffffffffffffffffffffffffffffffffffffffff1673ffffffffffffffffffffffffffffffffffffffff1681526020019081526020016000209050338160000160006101000a81548173ffffffffffffffffffffffffffffffffffffffff021916908373ffffffffffffffffffffffffffffffffffffffff160217905550806001018790806001815401808255809150506001900390600052602060002001600090919091909150557fc48fd32311b15f44bff37cf1e842e69ec8efad58cd1884bb34441fd8a5208806604051611c35906126a5565b60405180910390a181955050505050505b919050565b60008082118015611c5e57506003548211155b611c9d576040517f08c379a0000000000000000000000000000000000000000000000000000000008152600401611c9490612706565b60405180910390fd5b60046000838152602001908152602001600020600a01805490509050919050565b60008083118015611cd157506003548311155b611d10576040517f08c379a0000000000000000000000000000000000000000000000000000000008152600401611d0790612706565b60405180910390fd5b600060046000858152602001908152602001600020600a018381548110611d60577f4e487b7100000000000000000000000000000000000000000000000000000000600052603260045260246000fd5b9060005260206000200160009054906101000a900473ffffffffffffffffffffffffffffffffffffffff1690508091505092915050565b60008054906101000a900473ffffffffffffffffffffffffffffffffffffffff1681565b60026020528060005260406000206000915090508060000160009054906101000a900473ffffffffffffffffffffffffffffffffffffffff16905081565b600060046000848152602001908152602001600020600b0160008373ffffffffffffffffffffffffffffffffffffffff1673ffffffffffffffffffffffffffffffffffffffff16815260200190815260200160002054905092915050565b828054828255906000526020600020908101928215611e93579160200282015b82811115611e92578251825591602001919060010190611e77565b5b509050611ea09190611f77565b5090565b828054611eb090612c52565b90600052602060002090601f016020900481019282611ed25760008555611f19565b82601f10611eeb57805160ff1916838001178555611f19565b82800160010185558215611f19579182015b82811115611f18578251825591602001919060010190611efd565b5b509050611f269190611f94565b5090565b828054828255906000526020600020908101928215611f66579160200282015b82811115611f65578251825591602001919060010190611f4a565b5b509050611f739190611f94565b5090565b5b80821115611f90576000816000905550600101611f78565b5090565b5b80821115611fad576000816000905550600101611f95565b5090565b6000611fc4611fbf84612a25565b612a00565b905082815260208101848484011115611fdc57600080fd5b611fe7848285612c10565b509392505050565b600081359050611ffe8161311f565b92915050565b60008135905061201381613136565b92915050565b600082601f83011261202a57600080fd5b813561203a848260208601611fb1565b91505092915050565b6000813590506120528161314d565b92915050565b60006020828403121561206a57600080fd5b600061207884828501611fef565b91505092915050565b6000806000806080858703121561209757600080fd5b600085013567ffffffffffffffff8111156120b157600080fd5b6120bd87828801612019565b945050602085013567ffffffffffffffff8111156120da57600080fd5b6120e687828801612019565b93505060406120f787828801612043565b925050606061210887828801612004565b91505092959194509250565b60006020828403121561212657600080fd5b600061213484828501612043565b91505092915050565b6000806040838503121561215057600080fd5b600061215e85828601612043565b925050602061216f85828601611fef565b9150509250929050565b6000806040838503121561218c57600080fd5b600061219a85828601612043565b92505060206121ab85828601612043565b9150509250929050565b60006121c183836125b1565b60208301905092915050565b6121d681612bc8565b82525050565b60006121e782612a7b565b6121f18185612aa9565b93506121fc83612a56565b8060005b8381101561222d57815161221488826121b5565b975061221f83612a9c565b925050600181019050612200565b5085935050505092915050565b61224381612bda565b82525050565b600061225482612a86565b61225e8185612aba565b935061226e818560208601612c1f565b61227781612dba565b840191505092915050565b600061228d82612a91565b6122978185612ad6565b93506122a7818560208601612c1f565b6122b081612dba565b840191505092915050565b600081546122c881612c52565b6122d28186612ad6565b945060018216600081146122ed57600181146122ff57612332565b60ff1983168652602086019350612332565b61230885612a66565b60005b8381101561232a5781548189015260018201915060208101905061230b565b808801955050505b50505092915050565b6000612348601883612ad6565b915061235382612dcb565b602082019050919050565b600061236b604d83612ad6565b915061237682612df4565b606082019050919050565b600061238e601983612ad6565b915061239982612e69565b602082019050919050565b60006123b1600383612ad6565b91506123bc82612e92565b602082019050919050565b60006123d4600b83612ad6565b91506123df82612ebb565b602082019050919050565b60006123f7601383612ad6565b915061240282612ee4565b602082019050919050565b600061241a600f83612ad6565b915061242582612f0d565b602082019050919050565b600061243d601783612ad6565b915061244882612f36565b602082019050919050565b6000612460601383612ad6565b915061246b82612f5f565b602082019050919050565b6000612483601683612ad6565b915061248e82612f88565b602082019050919050565b60006124a6600083612acb565b91506124b182612fb1565b600082019050919050565b60006124c9601783612ad6565b91506124d482612fb4565b602082019050919050565b60006124ec600e83612ad6565b91506124f782612fdd565b602082019050919050565b600061250f602283612ad6565b915061251a82613006565b604082019050919050565b6000612532601783612ad6565b915061253d82613055565b602082019050919050565b6000612555602d83612ad6565b91506125608261307e565b604082019050919050565b6000612578600383612ad6565b9150612583826130cd565b602082019050919050565b600061259b600e83612ad6565b91506125a6826130f6565b602082019050919050565b6125ba81612c06565b82525050565b6125c981612c06565b82525050565b60006125da82612499565b9150819050919050565b60006020820190506125f960008301846121cd565b92915050565b6000602082019050818103600083015261261981846121dc565b905092915050565b6000602082019050818103600083015261263b8184612249565b905092915050565b6000602082019050818103600083015261265d8184612282565b905092915050565b6000602082019050818103600083015261267e8161233b565b9050919050565b6000602082019050818103600083015261269e8161235e565b9050919050565b600060408201905081810360008301526126be81612381565b905081810360208301526126d18161256b565b9050919050565b600060408201905081810360008301526126f1816123c7565b905061270060208301846121cd565b92915050565b6000602082019050818103600083015261271f816123ea565b9050919050565b6000602082019050818103600083015261273f8161240d565b9050919050565b6000604082019050818103600083015261275f81612430565b90508181036020830152612772816123a4565b9050919050565b6000602082019050818103600083015261279281612453565b9050919050565b600060208201905081810360008301526127b281612476565b9050919050565b600060208201905081810360008301526127d2816124bc565b9050919050565b600060408201905081810360008301526127f2816124df565b905061280160208301846121cd565b92915050565b6000602082019050818103600083015261282081612502565b9050919050565b6000602082019050818103600083015261284081612525565b9050919050565b6000602082019050818103600083015261286081612548565b9050919050565b600060208201905081810360008301526128808161258e565b9050919050565b600060208201905061289c60008301846125c0565b92915050565b60006080820190506128b760008301876125c0565b81810360208301526128c98186612282565b905081810360408301526128dd8185612282565b90506128ec60608301846121cd565b95945050505050565b60006101408201905061290b600083018d6125c0565b818103602083015261291d818c612282565b90508181036040830152612931818b612282565b9050612940606083018a6125c0565b61294d60808301896125c0565b61295a60a08301886121cd565b61296760c08301876121cd565b61297460e08301866125c0565b61298261010083018561223a565b6129906101208301846125c0565b9b9a5050505050505050505050565b600060a0820190506129b460008301886125c0565b81810360208301526129c681876122bb565b905081810360408301526129da81866122bb565b90506129e960608301856125c0565b6129f660808301846121cd565b9695505050505050565b6000612a0a612a1b565b9050612a168282612c84565b919050565b6000604051905090565b600067ffffffffffffffff821115612a4057612a3f612d8b565b5b612a4982612dba565b9050602081019050919050565b6000819050602082019050919050565b60008190508160005260206000209050919050565b600081519050919050565b600081519050919050565b600081519050919050565b6000602082019050919050565b600082825260208201905092915050565b600082825260208201905092915050565b600081905092915050565b600082825260208201905092915050565b6000612af282612c06565b9150612afd83612c06565b9250827fffffffffffffffffffffffffffffffffffffffffffffffffffffffffffffffff03821115612b3257612b31612cfe565b5b828201905092915050565b6000612b4882612c06565b9150612b5383612c06565b925082612b6357612b62612d2d565b5b828204905092915050565b6000612b7982612c06565b9150612b8483612c06565b9250817fffffffffffffffffffffffffffffffffffffffffffffffffffffffffffffffff0483118215151615612bbd57612bbc612cfe565b5b828202905092915050565b6000612bd382612be6565b9050919050565b60008115159050919050565b600073ffffffffffffffffffffffffffffffffffffffff82169050919050565b6000819050919050565b82818337600083830152505050565b60005b83811015612c3d578082015181840152602081019050612c22565b83811115612c4c576000848401525b50505050565b60006002820490506001821680612c6a57607f821691505b60208210811415612c7e57612c7d612d5c565b5b50919050565b612c8d82612dba565b810181811067ffffffffffffffff82111715612cac57612cab612d8b565b5b80604052505050565b6000612cc082612c06565b91507fffffffffffffffffffffffffffffffffffffffffffffffffffffffffffffffff821415612cf357612cf2612cfe565b5b600182019050919050565b7f4e487b7100000000000000000000000000000000000000000000000000000000600052601160045260246000fd5b7f4e487b7100000000000000000000000000000000000000000000000000000000600052601260045260246000fd5b7f4e487b7100000000000000000000000000000000000000000000000000000000600052602260045260246000fd5b7f4e487b7100000000000000000000000000000000000000000000000000000000600052604160045260246000fd5b6000601f19601f8301169050919050565b7f796f757420617265206e6f7420617574686f72697a6564210000000000000000600082015250565b7f596f7572206f7264657220616c726561647920686173206265656e206c6f636b60008201527f65642120706c656173652064656c657465206f6c64206f7264657220616e642060208201527f6372656174696e67206e65772e00000000000000000000000000000000000000604082015250565b7f4f7264657220506c61636564205375636365737366756c792100000000000000600082015250565b7f6275790000000000000000000000000000000000000000000000000000000000600082015250565b7f496d61676520736f6c6421000000000000000000000000000000000000000000600082015250565b7f6e6f742076616c696420696d6167652069642100000000000000000000000000600082015250565b7f4e6f206f7264657220666f756e64210000000000000000000000000000000000600082015250565b7f4875727261792120496d61676520697320796f75727321000000000000000000600082015250565b7f4661696c656420746f2073656e64204554482100000000000000000000000000600082015250565b7f696d616765206861736820697320726571756972656400000000000000000000600082015250565b50565b7f796f7520617265206e6f7420617574686f72697a656421000000000000000000600082015250565b7f5072696365205570646174656421000000000000000000000000000000000000600082015250565b7f6d696e696d756d2073656c6c696e67207072696365206973207265717569726560008201527f6421000000000000000000000000000000000000000000000000000000000000602082015250565b7f6465736372697074696f6e206973207265717569726564000000000000000000600082015250565b7f70726963652073686f756c64206265206265747765656e203020616e6420657860008201527f7065637465642070726963652100000000000000000000000000000000000000602082015250565b7f7265710000000000000000000000000000000000000000000000000000000000600082015250565b7f57726f6e67204164647265737321000000000000000000000000000000000000600082015250565b61312881612bc8565b811461313357600080fd5b50565b61313f81612bda565b811461314a57600080fd5b50565b61315681612c06565b811461316157600080fd5b5056fea2646970667358221220353ebf1295b40968c1763f39289ff431a09ed8848444df50b90517549513dcac64736f6c63430008040033",
  "immutableReferences": {},
  "source": "// SPDX-License-Identifier: MIT\npragma solidity ^0.8.4;\n// pragma experimental ABIEncoderV2;\n\ncontract SnapDapp {\n  address public contractOwner; // from solidity 0.8.0 we don't need to declare the address as payable explicitly, but when you rare transferring an amount to such address. \n  string public name = \"SnapDapp\";\n\n  constructor(address _ownerAddress){\n      contractOwner = _ownerAddress;\n  }\n\n\n  struct Image{\n      uint id;\n      string hash;\n      string description;\n      uint tipAmount;\n      uint minSellingPrice;\n      address author; \n      address imgOwner; \n      uint bidderCount;\n      bool wantToSell;\n      uint boughtCount;\n      address[] buyers;\n      mapping(address => uint) requests; // buying requests with buyer address and paid amount\n      mapping(address => uint) tippedBy; // it will contain address of the people who tipped with amount\n      mapping(uint => bytes32[]) boughtAt; // number of times it has beed bought and array with address and amount // FIXME: also with time \n  }\n\n  struct MyOrders{\n    address imgOwner;\n    uint[] imgs;\n  }\n  \n  mapping(address => MyOrders) public orders; \n  \n  \n  uint public imageCount = 0;\n\n  // store Images \n  mapping(uint => Image) public images;\n\n  \n  modifier restricted() {\n    require(\n      msg.sender == contractOwner,\n      \"This function is restricted to the contract's owner\"\n    );\n    _;\n  }\n  \n        /*\n    Which function is called, fallback() or receive()?\n\n           send Ether\n               |\n         msg.data is empty?\n              / \\\n            yes  no\n            /     \\\nreceive() exists?  fallback()\n         /   \\\n        yes   no\n        /      \\\n    receive()   fallback()\n    */\n    \n    // functon to receive ETH. msg.data must be empty\n    receive() external payable {}\n    \n    // fallback function is called when msg.data is not empty\n    fallback() external payable {}\n    \n    function getBalance() public view returns(uint){\n        return address(this).balance;\n    }\n\n  // event to emit when image is posted\n    event ImagePosted(\n        uint id,\n        string hash, \n        string description,\n        address author\n    );\n\n  // event to emit when image is tipped\n    event ImageTipped(\n        uint id,\n        string hash, \n        string description,\n        uint tipAmount,\n        address author\n    );\n\n  // image buying request\n    event ImageRequest(\n        string msg, \n        string actionType\n    );\n\n  // event to emit when image is bought\n    event ImageBought(\n        string msg, \n        string actionType\n    );\n\n    // change Price \n    event ChangePriceOrSell(\n        string msg,\n        address imgOwner\n    );\n\n    // post image\n    function uploadImage(string memory _imgHash, string memory _description,  uint _minSellingPrice, bool _wantToSell) public{\n\n        // make sure image hash exists\n        require(bytes(_imgHash).length > 0, \"image hash is required\");\n        // console.log(bytes(_imgHash));\n\n        // make sure image description exists\n        require(bytes(_description).length > 0, \"description is required\");\n\n        // make sure minimum selling price exists\n        require(_minSellingPrice > 0, \"minimum selling price is required!\");\n\n        // make sure uploader address exists\n        require(msg.sender != address(0x0), \"Wrong Address!\");\n        \n\n        // increment image id\n        imageCount++;\n\n        ////TYPE ERROR:  we cannot do like this:  because Image type variable contains nested mapping\n        // images[imageCount] = Image( \n        //     imageCount, \n        //     _imgHash, \n        //     _description, \n        //     0, \n        //     _minSellingPrice, \n        //     msg.sender, \n        //     msg.sender\n        // );\n        \n        \n        // add image to contract \n        Image storage newImage = images[imageCount];\n        newImage.id = imageCount;\n        newImage.hash = _imgHash;\n        newImage.description = _description;\n        newImage.tipAmount = 0;\n        newImage.minSellingPrice = _minSellingPrice;\n        newImage.author = msg.sender;\n        newImage.imgOwner = msg.sender;\n        newImage.wantToSell = _wantToSell;\n        \n        emit ImagePosted(\n            imageCount, \n            _imgHash, \n            _description, \n            msg.sender\n        );\n    }\n    \n    // tip image owner\n    function tipImageOwner(uint _id) public payable{\n    \n        // make sure given id is valid\n        require(_id > 0 && _id <= imageCount);\n        \n        \n        // fetch the image\n        // Image memory _image = images[_id];\n\n        Image storage _image = images[_id]; // saved in storage because I will work directly on it, not on the copy of it\n        \n        // fetch the author\n        address _author = _image.author;\n        \n        // fetch the current image owner\n        address _imgOwner = _image.imgOwner;\n        \n        // tip the author by sending some ether\n        uint _authorReward = (msg.value * 20)/100;  // 20%\n        uint _ownerReward = (msg.value * 80)/100;   // 80%\n        \n        // here 20% of amount will be transferred to imgAuthor and 80% amount will be transferred to ImageOwner\n        \n        // check if author and imgOwner are same or different \n        if(_author != _imgOwner){\n            payable(_author).transfer(_authorReward);\n            payable(_imgOwner).transfer(_ownerReward);\n        }\n        else{\n            payable(_author).transfer(msg.value);\n        }\n        \n        // increament the tip amount of the image\n        _image.tipAmount += msg.value;\n        \n        // now add tipper in the mapping of tippedBy with tipped amount\n        _image.tippedBy[msg.sender] += msg.value;\n        \n        \n        emit ImageTipped(\n            _id, \n            _image.hash, \n            _image.description, \n            _image.tipAmount, \n            _author\n        );\n    }\n    \n    \n    \n    \n    // make a request for buying image\n    function buyImageRequest(uint _id) public payable returns(bytes memory){\n        // make sure given id is valid\n        require(_id > 0 && _id <= imageCount);\n        \n        // fetch the image\n        Image storage _image = images[_id];\n        \n        // fetch the current image owner\n        address _imgOwner = _image.imgOwner;\n        \n        require(msg.value <= _image.minSellingPrice && msg.value > 0, \"price should be between 0 and expected price!\");\n        \n        // check if buyer has already locked an order or not\n        require(_image.requests[msg.sender] == 0, \"Your order already has been locked! please delete old order and creating new.\");\n        \n        // if buyer's offered price is equal or more than the seller's expected price then transfer money to the current owner and directly change owner\n        \n        if(_image.minSellingPrice <= msg.value && _image.wantToSell){\n            // check if image is for sale or not\n        \n            //// transfer money directly to the owner\n            //payable(_imgOwner).transfer(msg.value); //this method id not longer allowed for transferring ETH\n        \n            //// Call returns a boolean value indicating success or failure.\n            (bool sent, bytes memory data) = payable(_imgOwner).call{value: msg.value}(\"\");\n            \n            require(sent, \"Failed to send ETH!\");\n            \n            \n            // now change owner\n            _image.imgOwner = msg.sender;\n            \n            // now remove from sale\n            _image.wantToSell = false;\n            \n            _image.boughtCount++;\n            \n            _image.boughtAt[_image.boughtCount] = [bytes32(uint256(uint160(msg.sender))), bytes32(msg.value)];\n            \n            _image.bidderCount++; \n            \n            _image.requests[msg.sender] = 0; \n            \n            emit ImageBought('Hurray! Image is yours!', 'buy');\n            return data;\n                    \n        }else{\n            // create and lock order for buying image at given value\n            _image.requests[msg.sender] = msg.value;  \n            \n            // address[] memory _buyersList = _image.buyers;\n\n            _image.buyers.push(msg.sender);\n            \n            \n            // lock amount in the contract \n            (bool sent, bytes memory data) = payable(this).call{value: msg.value}(\"\");\n            \n            require(sent, \"Failed to send ETH!\");\n            \n            _image.bidderCount++; \n            \n            MyOrders storage _myorders = orders[msg.sender];\n            _myorders.imgOwner = msg.sender;\n            _myorders.imgs.push(_id);\n            \n            \n            emit ImageRequest('Order Placed Successfuly!', 'req');\n            return data;\n        }\n    }\n    \n    // get request \n    function getRequest(uint _id, address _address) public view returns(uint){\n        return images[_id].requests[_address];\n    } \n    \n    \n    // TODO: remove auction option from image\n    function removeFromSale(uint _id) public{\n                // make sure given id is valid\n        require(_id > 0 && _id <= imageCount);\n        \n        // fetch the image\n        Image storage _image = images[_id];\n        \n        require(msg.sender == _image.imgOwner, \"yout are not authorized!\");\n        \n        _image.wantToSell = false;\n    }\n    \n    function getBuyersFromList(uint _imgId, uint _index) public view returns(address){\n        // make sure given id is valid\n        require(_imgId > 0 && _imgId <= imageCount, \"not valid image id!\");\n        \n        address currentBuyer = images[_imgId].buyers[_index];\n        \n        return currentBuyer;\n    }\n    \n    function getTotalBuyers(uint _imgId) public view returns(uint){\n        // make sure given id is valid\n        require(_imgId > 0 && _imgId <= imageCount, \"not valid image id!\");\n        \n        return images[_imgId].buyers.length;\n    }\n    \n    \n    \n    // change the selling price \n    function changePriceOrSell(uint _id, uint _minSellingPrice) public{\n                // make sure given id is valid\n        require(_id > 0 && _id <= imageCount);\n        \n        // fetch the image\n        Image storage _image = images[_id];\n        \n        require(msg.sender == _image.imgOwner, \"you are not authorized!\");\n        \n        if(!_image.wantToSell){\n            _image.wantToSell = true;\n        }\n\n        _image.minSellingPrice = _minSellingPrice;\n        \n        address[] memory _buyersList = _image.buyers;\n        uint buyersLen = _buyersList.length;\n        bool buyerAvailable = false;\n        uint i = 0;\n        \n        // check in the requests if someone wants to buy this image or not at expected price, if yes then sell the image\n        while(i < buyersLen && !buyerAvailable){\n            address currentAddr = _buyersList[i];\n            \n            \n            if(_image.requests[currentAddr] == _minSellingPrice){\n                buyerAvailable = true;\n            \n                // transfer money from contract now.\n                (bool sent, bytes memory data) = payable(_image.imgOwner).call{value: _minSellingPrice}(\"\");\n                \n                require(sent, \"Failed to send ETH!\");\n                \n                \n                // now change owner\n                _image.imgOwner = currentAddr;\n                \n                // now remove from sale\n                _image.wantToSell = false;\n                \n                _image.boughtCount++;\n                \n                _image.boughtAt[_image.boughtCount] = [bytes32(uint256(uint160(currentAddr))), bytes32(_minSellingPrice)];\n                \n                _image.requests[currentAddr] = 0; \n\n                \n            }\n            i++;\n        }\n        if(buyerAvailable){\n            emit ChangePriceOrSell('Image sold!', _image.imgOwner);\n        }else{\n            emit ChangePriceOrSell('Price Updated!', _image.imgOwner);\n        }\n        \n    }\n    \n    \n    // TODO: Delete order and get refund\n    function removeOrder(uint _imgId) public returns (bytes memory){ \n        require(_imgId > 0 && _imgId <= imageCount);\n        \n        // fetch the image\n        Image storage _image = images[_imgId];\n        \n        // check if this user is available or not \n        require(_image.requests[msg.sender] != 0, 'No order found!');\n        \n        // transfer money from contract now.\n        (bool sent, bytes memory data) = payable(msg.sender).call{value: _image.requests[msg.sender]}(\"\");\n                \n        require(sent, \"Failed to send ETH!\");\n        \n        _image.requests[msg.sender] = 0;\n        \n        MyOrders storage _orders =  orders[msg.sender];\n        \n        uint[] memory _imgs = _orders.imgs;\n        uint[] memory tmp = _orders.imgs;\n        \n        for(uint i= 0; i < tmp.length; i++ ){\n            if(tmp[i] == _imgId){\n                delete _imgs[i];\n                _orders.imgs = _imgs;\n                return data;\n            }\n        }\n        \n        return data;\n\n        \n    }\n    \n    \n    function getOrders(address _address) external view returns(uint[] memory){\n         MyOrders memory _orders = orders[_address];\n        return _orders.imgs;\n    }\n}\n\n\n\n\n\n\n\n\n",
  "sourcePath": "/Users/aloora/Documents/snap_dapp/contracts/SnapDapp.sol",
  "compiler": {
    "name": "solc",
    "version": "0.8.4+commit.c7e474f2.Emscripten.clang"
  },
  "schemaVersion": "3.4.1",
  "updatedAt": "2021-08-12T17:32:40.372Z",
  "networkType": "ethereum",
  "devdoc": {
    "kind": "dev",
    "methods": {},
    "version": 1
  },
  "userdoc": {
    "kind": "user",
    "methods": {},
    "version": 1
  }
}