{
  "contractName": "SnapDapp",
  "abi": [
    {
      "inputs": [
        {
          "internalType": "address",
          "name": "_ownerAddress",
          "type": "address"
        }
      ],
      "stateMutability": "nonpayable",
      "type": "constructor"
    },
    {
      "anonymous": false,
      "inputs": [
        {
          "indexed": false,
          "internalType": "string",
          "name": "msg",
          "type": "string"
        },
        {
          "indexed": false,
          "internalType": "string",
          "name": "actionType",
          "type": "string"
        }
      ],
      "name": "ImageBought",
      "type": "event"
    },
    {
      "anonymous": false,
      "inputs": [
        {
          "indexed": false,
          "internalType": "uint256",
          "name": "id",
          "type": "uint256"
        },
        {
          "indexed": false,
          "internalType": "string",
          "name": "hash",
          "type": "string"
        },
        {
          "indexed": false,
          "internalType": "string",
          "name": "description",
          "type": "string"
        },
        {
          "indexed": false,
          "internalType": "address",
          "name": "author",
          "type": "address"
        }
      ],
      "name": "ImagePosted",
      "type": "event"
    },
    {
      "anonymous": false,
      "inputs": [
        {
          "indexed": false,
          "internalType": "string",
          "name": "msg",
          "type": "string"
        },
        {
          "indexed": false,
          "internalType": "string",
          "name": "actionType",
          "type": "string"
        }
      ],
      "name": "ImageRequest",
      "type": "event"
    },
    {
      "anonymous": false,
      "inputs": [
        {
          "indexed": false,
          "internalType": "uint256",
          "name": "id",
          "type": "uint256"
        },
        {
          "indexed": false,
          "internalType": "string",
          "name": "hash",
          "type": "string"
        },
        {
          "indexed": false,
          "internalType": "string",
          "name": "description",
          "type": "string"
        },
        {
          "indexed": false,
          "internalType": "uint256",
          "name": "tipAmount",
          "type": "uint256"
        },
        {
          "indexed": false,
          "internalType": "address",
          "name": "author",
          "type": "address"
        }
      ],
      "name": "ImageTipped",
      "type": "event"
    },
    {
      "stateMutability": "payable",
      "type": "fallback",
      "payable": true
    },
    {
      "inputs": [],
      "name": "contractOwner",
      "outputs": [
        {
          "internalType": "address",
          "name": "",
          "type": "address"
        }
      ],
      "stateMutability": "view",
      "type": "function",
      "constant": true
    },
    {
      "inputs": [],
      "name": "imageCount",
      "outputs": [
        {
          "internalType": "uint256",
          "name": "",
          "type": "uint256"
        }
      ],
      "stateMutability": "view",
      "type": "function",
      "constant": true
    },
    {
      "inputs": [
        {
          "internalType": "uint256",
          "name": "",
          "type": "uint256"
        }
      ],
      "name": "images",
      "outputs": [
        {
          "internalType": "uint256",
          "name": "id",
          "type": "uint256"
        },
        {
          "internalType": "string",
          "name": "hash",
          "type": "string"
        },
        {
          "internalType": "string",
          "name": "description",
          "type": "string"
        },
        {
          "internalType": "uint256",
          "name": "tipAmount",
          "type": "uint256"
        },
        {
          "internalType": "uint256",
          "name": "minSellingPrice",
          "type": "uint256"
        },
        {
          "internalType": "address",
          "name": "author",
          "type": "address"
        },
        {
          "internalType": "address",
          "name": "imgOwner",
          "type": "address"
        },
        {
          "internalType": "uint256",
          "name": "bidderCount",
          "type": "uint256"
        },
        {
          "internalType": "bool",
          "name": "wantToSell",
          "type": "bool"
        },
        {
          "internalType": "uint256",
          "name": "boughtCount",
          "type": "uint256"
        }
      ],
      "stateMutability": "view",
      "type": "function",
      "constant": true
    },
    {
      "inputs": [],
      "name": "name",
      "outputs": [
        {
          "internalType": "string",
          "name": "",
          "type": "string"
        }
      ],
      "stateMutability": "view",
      "type": "function",
      "constant": true
    },
    {
      "stateMutability": "payable",
      "type": "receive",
      "payable": true
    },
    {
      "inputs": [],
      "name": "getBalance",
      "outputs": [
        {
          "internalType": "uint256",
          "name": "",
          "type": "uint256"
        }
      ],
      "stateMutability": "view",
      "type": "function",
      "constant": true
    },
    {
      "inputs": [
        {
          "internalType": "string",
          "name": "_imgHash",
          "type": "string"
        },
        {
          "internalType": "string",
          "name": "_description",
          "type": "string"
        },
        {
          "internalType": "uint256",
          "name": "_minSellingPrice",
          "type": "uint256"
        },
        {
          "internalType": "bool",
          "name": "_wantToSell",
          "type": "bool"
        }
      ],
      "name": "uploadImage",
      "outputs": [],
      "stateMutability": "nonpayable",
      "type": "function"
    },
    {
      "inputs": [
        {
          "internalType": "uint256",
          "name": "_id",
          "type": "uint256"
        }
      ],
      "name": "tipImageOwner",
      "outputs": [],
      "stateMutability": "payable",
      "type": "function",
      "payable": true
    },
    {
      "inputs": [
        {
          "internalType": "uint256",
          "name": "_id",
          "type": "uint256"
        }
      ],
      "name": "buyImageRequest",
      "outputs": [
        {
          "internalType": "bytes",
          "name": "",
          "type": "bytes"
        }
      ],
      "stateMutability": "payable",
      "type": "function",
      "payable": true
    },
    {
      "inputs": [
        {
          "internalType": "uint256",
          "name": "_id",
          "type": "uint256"
        },
        {
          "internalType": "address",
          "name": "_address",
          "type": "address"
        }
      ],
      "name": "getRequest",
      "outputs": [
        {
          "internalType": "uint256",
          "name": "",
          "type": "uint256"
        }
      ],
      "stateMutability": "view",
      "type": "function",
      "constant": true
    },
    {
      "inputs": [
        {
          "internalType": "uint256",
          "name": "_id",
          "type": "uint256"
        }
      ],
      "name": "removeFromSale",
      "outputs": [],
      "stateMutability": "nonpayable",
      "type": "function"
    },
    {
      "inputs": [
        {
          "internalType": "uint256",
          "name": "_imgId",
          "type": "uint256"
        },
        {
          "internalType": "uint256",
          "name": "_index",
          "type": "uint256"
        }
      ],
      "name": "getBuyersFromList",
      "outputs": [
        {
          "internalType": "address",
          "name": "",
          "type": "address"
        }
      ],
      "stateMutability": "view",
      "type": "function",
      "constant": true
    },
    {
      "inputs": [
        {
          "internalType": "uint256",
          "name": "_imgId",
          "type": "uint256"
        }
      ],
      "name": "getTotalBuyers",
      "outputs": [
        {
          "internalType": "uint256",
          "name": "",
          "type": "uint256"
        }
      ],
      "stateMutability": "view",
      "type": "function",
      "constant": true
    },
    {
      "inputs": [
        {
          "internalType": "uint256",
          "name": "_id",
          "type": "uint256"
        },
        {
          "internalType": "uint256",
          "name": "_minSellingPrice",
          "type": "uint256"
        }
      ],
      "name": "changePriceOrSell",
      "outputs": [],
      "stateMutability": "nonpayable",
      "type": "function"
    },
    {
      "inputs": [
        {
          "internalType": "uint256",
          "name": "_imgId",
          "type": "uint256"
        }
      ],
      "name": "removeOrder",
      "outputs": [
        {
          "internalType": "bytes",
          "name": "",
          "type": "bytes"
        }
      ],
      "stateMutability": "nonpayable",
      "type": "function"
    }
  ],
  "bytecode": "0x60806040526040518060400160405280600881526020017f536e6170446170700000000000000000000000000000000000000000000000008152506001908051906020019062000051929190620000d1565b5060006002553480156200006457600080fd5b5060405162002b8938038062002b8983398181016040528101906200008a919062000198565b806000806101000a81548173ffffffffffffffffffffffffffffffffffffffff021916908373ffffffffffffffffffffffffffffffffffffffff1602179055505062000277565b828054620000df90620001f8565b90600052602060002090601f0160209004810192826200010357600085556200014f565b82601f106200011e57805160ff19168380011785556200014f565b828001600101855582156200014f579182015b828111156200014e57825182559160200191906001019062000131565b5b5090506200015e919062000162565b5090565b5b808211156200017d57600081600090555060010162000163565b5090565b60008151905062000192816200025d565b92915050565b600060208284031215620001ab57600080fd5b6000620001bb8482850162000181565b91505092915050565b6000620001d182620001d8565b9050919050565b600073ffffffffffffffffffffffffffffffffffffffff82169050919050565b600060028204905060018216806200021157607f821691505b602082108114156200022857620002276200022e565b5b50919050565b7f4e487b7100000000000000000000000000000000000000000000000000000000600052602260045260246000fd5b6200026881620001c4565b81146200027457600080fd5b50565b61290280620002876000396000f3fe6080604052600436106100e15760003560e01c806392053b631161007f578063a078c20211610059578063a078c202146102b5578063a2fd237d146102f2578063ce606ee01461032f578063fed650271461035a576100e8565b806392053b631461021d5780639645337a14610248578063a066bcb414610285576100e8565b806317407e48116100bb57806317407e481461016957806375fafde11461019257806384856482146101bb5780638567ade814610201576100e8565b806306fdde03146100ea57806312065fe0146101155780631361a3b614610140576100e8565b366100e857005b005b3480156100f657600080fd5b506100ff610397565b60405161010c9190611f60565b60405180910390f35b34801561012157600080fd5b5061012a610425565b60405161013791906120f5565b60405180910390f35b34801561014c57600080fd5b5061016760048036038101906101629190611b87565b61042d565b005b34801561017557600080fd5b50610190600480360381019061018b9190611bec565b610512565b005b34801561019e57600080fd5b506101b960048036038101906101b49190611af4565b61095a565b005b3480156101c757600080fd5b506101e260048036038101906101dd9190611b87565b610bfe565b6040516101f89a99989796959493929190612163565b60405180910390f35b61021b60048036038101906102169190611b87565b610daf565b005b34801561022957600080fd5b5061023261103f565b60405161023f91906120f5565b60405180910390f35b34801561025457600080fd5b5061026f600480360381019061026a9190611b87565b611045565b60405161027c9190611f3e565b60405180910390f35b61029f600480360381019061029a9190611b87565b61123f565b6040516102ac9190611f3e565b60405180910390f35b3480156102c157600080fd5b506102dc60048036038101906102d79190611b87565b611772565b6040516102e991906120f5565b60405180910390f35b3480156102fe57600080fd5b5061031960048036038101906103149190611bec565b6117e5565b6040516103269190611f23565b60405180910390f35b34801561033b57600080fd5b506103446118be565b6040516103519190611f23565b60405180910390f35b34801561036657600080fd5b50610381600480360381019061037c9190611bb0565b6118e2565b60405161038e91906120f5565b60405180910390f35b600180546103a490612487565b80601f01602080910402602001604051908101604052809291908181526020018280546103d090612487565b801561041d5780601f106103f25761010080835404028352916020019161041d565b820191906000526020600020905b81548152906001019060200180831161040057829003601f168201915b505050505081565b600047905090565b60008111801561043f57506002548111155b61044857600080fd5b60006003600083815260200190815260200160002090508060060160009054906101000a900473ffffffffffffffffffffffffffffffffffffffff1673ffffffffffffffffffffffffffffffffffffffff163373ffffffffffffffffffffffffffffffffffffffff16146104f1576040517f08c379a00000000000000000000000000000000000000000000000000000000081526004016104e890611f82565b60405180910390fd5b60008160080160006101000a81548160ff0219169083151502179055505050565b60008211801561052457506002548211155b61052d57600080fd5b60006003600084815260200190815260200160002090508060060160009054906101000a900473ffffffffffffffffffffffffffffffffffffffff1673ffffffffffffffffffffffffffffffffffffffff163373ffffffffffffffffffffffffffffffffffffffff16146105d6576040517f08c379a00000000000000000000000000000000000000000000000000000000081526004016105cd90611f82565b60405180910390fd5b8060080160009054906101000a900460ff1661060a5760018160080160006101000a81548160ff0219169083151502179055505b818160040181905550600081600a0180548060200260200160405190810160405280929190818152602001828054801561069957602002820191906000526020600020905b8160009054906101000a900473ffffffffffffffffffffffffffffffffffffffff1673ffffffffffffffffffffffffffffffffffffffff168152602001906001019080831161064f575b505050505090506000815190506000805b82811080156106b7575081155b156109515760008482815181106106f7577f4e487b7100000000000000000000000000000000000000000000000000000000600052603260045260246000fd5b602002602001015190508686600b0160008373ffffffffffffffffffffffffffffffffffffffff1673ffffffffffffffffffffffffffffffffffffffff16815260200190815260200160002054141561093d57600192506000808760060160009054906101000a900473ffffffffffffffffffffffffffffffffffffffff1673ffffffffffffffffffffffffffffffffffffffff168960405161079990611f0e565b60006040518083038185875af1925050503d80600081146107d6576040519150601f19603f3d011682016040523d82523d6000602084013e6107db565b606091505b509150915081610820576040517f08c379a000000000000000000000000000000000000000000000000000000000815260040161081790612035565b60405180910390fd5b828860060160006101000a81548173ffffffffffffffffffffffffffffffffffffffff021916908373ffffffffffffffffffffffffffffffffffffffff16021790555060008860080160006101000a81548160ff021916908315150217905550876009016000815480929190610895906124ea565b919050555060405180604001604052808473ffffffffffffffffffffffffffffffffffffffff1660001b81526020018a60001b81525088600d0160008a6009015481526020019081526020016000209060026108f2929190611940565b50600088600b0160008573ffffffffffffffffffffffffffffffffffffffff1673ffffffffffffffffffffffffffffffffffffffff1681526020019081526020016000208190555050505b8180610948906124ea565b925050506106aa565b50505050505050565b600084511161099e576040517f08c379a000000000000000000000000000000000000000000000000000000000815260040161099590612055565b60405180910390fd5b60008351116109e2576040517f08c379a00000000000000000000000000000000000000000000000000000000081526004016109d990612095565b60405180910390fd5b60008211610a25576040517f08c379a0000000000000000000000000000000000000000000000000000000008152600401610a1c90612075565b60405180910390fd5b600073ffffffffffffffffffffffffffffffffffffffff163373ffffffffffffffffffffffffffffffffffffffff161415610a95576040517f08c379a0000000000000000000000000000000000000000000000000000000008152600401610a8c906120d5565b60405180910390fd5b60026000815480929190610aa8906124ea565b919050555060006003600060025481526020019081526020016000209050600254816000018190555084816001019080519060200190610ae992919061198d565b5083816002019080519060200190610b0292919061198d565b5060008160030181905550828160040181905550338160050160006101000a81548173ffffffffffffffffffffffffffffffffffffffff021916908373ffffffffffffffffffffffffffffffffffffffff160217905550338160060160006101000a81548173ffffffffffffffffffffffffffffffffffffffff021916908373ffffffffffffffffffffffffffffffffffffffff160217905550818160080160006101000a81548160ff0219169083151502179055507f709f171064f6966d61c19526a2daf07d69a02f0370b63549254e5588e6352a16600254868633604051610bef9493929190612110565b60405180910390a15050505050565b6003602052806000526040600020600091509050806000015490806001018054610c2790612487565b80601f0160208091040260200160405190810160405280929190818152602001828054610c5390612487565b8015610ca05780601f10610c7557610100808354040283529160200191610ca0565b820191906000526020600020905b815481529060010190602001808311610c8357829003601f168201915b505050505090806002018054610cb590612487565b80601f0160208091040260200160405190810160405280929190818152602001828054610ce190612487565b8015610d2e5780601f10610d0357610100808354040283529160200191610d2e565b820191906000526020600020905b815481529060010190602001808311610d1157829003601f168201915b5050505050908060030154908060040154908060050160009054906101000a900473ffffffffffffffffffffffffffffffffffffffff16908060060160009054906101000a900473ffffffffffffffffffffffffffffffffffffffff16908060070154908060080160009054906101000a900460ff1690806009015490508a565b600081118015610dc157506002548111155b610dca57600080fd5b600060036000838152602001908152602001600020905060008160050160009054906101000a900473ffffffffffffffffffffffffffffffffffffffff16905060008260060160009054906101000a900473ffffffffffffffffffffffffffffffffffffffff16905060006064601434610e4491906123a3565b610e4e9190612372565b905060006064605034610e6191906123a3565b610e6b9190612372565b90508273ffffffffffffffffffffffffffffffffffffffff168473ffffffffffffffffffffffffffffffffffffffff1614610f33578373ffffffffffffffffffffffffffffffffffffffff166108fc839081150290604051600060405180830381858888f19350505050158015610ee6573d6000803e3d6000fd5b508273ffffffffffffffffffffffffffffffffffffffff166108fc829081150290604051600060405180830381858888f19350505050158015610f2d573d6000803e3d6000fd5b50610f7b565b8373ffffffffffffffffffffffffffffffffffffffff166108fc349081150290604051600060405180830381858888f19350505050158015610f79573d6000803e3d6000fd5b505b34856003016000828254610f8f919061231c565b925050819055503485600c0160003373ffffffffffffffffffffffffffffffffffffffff1673ffffffffffffffffffffffffffffffffffffffff1681526020019081526020016000206000828254610fe7919061231c565b925050819055507f1be5317bca8d3f70dc1efe89958be71bff36cdca33fc00a6423e25eb2f1d492f86866001018760020188600301548860405161102f95949392919061220d565b60405180910390a1505050505050565b60025481565b606060008211801561105957506002548211155b61106257600080fd5b6000600360008481526020019081526020016000209050600081600b0160003373ffffffffffffffffffffffffffffffffffffffff1673ffffffffffffffffffffffffffffffffffffffff1681526020019081526020016000205414156110fe576040517f08c379a00000000000000000000000000000000000000000000000000000000081526004016110f590611fe2565b60405180910390fd5b6000803373ffffffffffffffffffffffffffffffffffffffff1683600b0160003373ffffffffffffffffffffffffffffffffffffffff1673ffffffffffffffffffffffffffffffffffffffff1681526020019081526020016000205460405161116690611f0e565b60006040518083038185875af1925050503d80600081146111a3576040519150601f19603f3d011682016040523d82523d6000602084013e6111a8565b606091505b5091509150816111ed576040517f08c379a00000000000000000000000000000000000000000000000000000000081526004016111e490612035565b60405180910390fd5b600083600b0160003373ffffffffffffffffffffffffffffffffffffffff1673ffffffffffffffffffffffffffffffffffffffff16815260200190815260200160002081905550809350505050919050565b606060008211801561125357506002548211155b61125c57600080fd5b600060036000848152602001908152602001600020905060008160060160009054906101000a900473ffffffffffffffffffffffffffffffffffffffff169050816004015434111580156112b05750600034115b6112ef576040517f08c379a00000000000000000000000000000000000000000000000000000000081526004016112e6906120b5565b60405180910390fd5b600082600b0160003373ffffffffffffffffffffffffffffffffffffffff1673ffffffffffffffffffffffffffffffffffffffff1681526020019081526020016000205414611373576040517f08c379a000000000000000000000000000000000000000000000000000000000815260040161136a90611fa2565b60405180910390fd5b3482600401541115801561139557508160080160009054906101000a900460ff165b156115bd576000808273ffffffffffffffffffffffffffffffffffffffff16346040516113c190611f0e565b60006040518083038185875af1925050503d80600081146113fe576040519150601f19603f3d011682016040523d82523d6000602084013e611403565b606091505b509150915081611448576040517f08c379a000000000000000000000000000000000000000000000000000000000815260040161143f90612035565b60405180910390fd5b338460060160006101000a81548173ffffffffffffffffffffffffffffffffffffffff021916908373ffffffffffffffffffffffffffffffffffffffff16021790555060008460080160006101000a81548160ff0219169083151502179055508360090160008154809291906114bd906124ea565b919050555060405180604001604052803373ffffffffffffffffffffffffffffffffffffffff1660001b81526020013460001b81525084600d0160008660090154815260200190815260200160002090600261151a929190611940565b50836007016000815480929190611530906124ea565b9190505550600084600b0160003373ffffffffffffffffffffffffffffffffffffffff1673ffffffffffffffffffffffffffffffffffffffff168152602001908152602001600020819055507f34e491eb66ee304c70fcdaf23372612d2a0ea85b4c09131fce364bc1d85522206040516115a990612002565b60405180910390a18094505050505061176d565b3482600b0160003373ffffffffffffffffffffffffffffffffffffffff1673ffffffffffffffffffffffffffffffffffffffff1681526020019081526020016000208190555081600a01339080600181540180825580915050600190039060005260206000200160009091909190916101000a81548173ffffffffffffffffffffffffffffffffffffffff021916908373ffffffffffffffffffffffffffffffffffffffff1602179055506000803073ffffffffffffffffffffffffffffffffffffffff163460405161168f90611f0e565b60006040518083038185875af1925050503d80600081146116cc576040519150601f19603f3d011682016040523d82523d6000602084013e6116d1565b606091505b509150915081611716576040517f08c379a000000000000000000000000000000000000000000000000000000000815260040161170d90612035565b60405180910390fd5b83600701600081548092919061172b906124ea565b91905055507fc48fd32311b15f44bff37cf1e842e69ec8efad58cd1884bb34441fd8a520880660405161175d90612002565b60405180910390a1809450505050505b919050565b6000808211801561178557506002548211155b6117c4576040517f08c379a00000000000000000000000000000000000000000000000000000000081526004016117bb90611fc2565b60405180910390fd5b60036000838152602001908152602001600020600a01805490509050919050565b600080831180156117f857506002548311155b611837576040517f08c379a000000000000000000000000000000000000000000000000000000000815260040161182e90611fc2565b60405180910390fd5b600060036000858152602001908152602001600020600a018381548110611887577f4e487b7100000000000000000000000000000000000000000000000000000000600052603260045260246000fd5b9060005260206000200160009054906101000a900473ffffffffffffffffffffffffffffffffffffffff1690508091505092915050565b60008054906101000a900473ffffffffffffffffffffffffffffffffffffffff1681565b600060036000848152602001908152602001600020600b0160008373ffffffffffffffffffffffffffffffffffffffff1673ffffffffffffffffffffffffffffffffffffffff16815260200190815260200160002054905092915050565b82805482825590600052602060002090810192821561197c579160200282015b8281111561197b578251825591602001919060010190611960565b5b5090506119899190611a13565b5090565b82805461199990612487565b90600052602060002090601f0160209004810192826119bb5760008555611a02565b82601f106119d457805160ff1916838001178555611a02565b82800160010185558215611a02579182015b82811115611a015782518255916020019190600101906119e6565b5b509050611a0f9190611a30565b5090565b5b80821115611a2c576000816000905550600101611a14565b5090565b5b80821115611a49576000816000905550600101611a31565b5090565b6000611a60611a5b84612293565b61226e565b905082815260208101848484011115611a7857600080fd5b611a83848285612445565b509392505050565b600081359050611a9a81612887565b92915050565b600081359050611aaf8161289e565b92915050565b600082601f830112611ac657600080fd5b8135611ad6848260208601611a4d565b91505092915050565b600081359050611aee816128b5565b92915050565b60008060008060808587031215611b0a57600080fd5b600085013567ffffffffffffffff811115611b2457600080fd5b611b3087828801611ab5565b945050602085013567ffffffffffffffff811115611b4d57600080fd5b611b5987828801611ab5565b9350506040611b6a87828801611adf565b9250506060611b7b87828801611aa0565b91505092959194509250565b600060208284031215611b9957600080fd5b6000611ba784828501611adf565b91505092915050565b60008060408385031215611bc357600080fd5b6000611bd185828601611adf565b9250506020611be285828601611a8b565b9150509250929050565b60008060408385031215611bff57600080fd5b6000611c0d85828601611adf565b9250506020611c1e85828601611adf565b9150509250929050565b611c31816123fd565b82525050565b611c408161240f565b82525050565b6000611c51826122d9565b611c5b81856122ef565b9350611c6b818560208601612454565b611c74816125ef565b840191505092915050565b6000611c8a826122e4565b611c94818561230b565b9350611ca4818560208601612454565b611cad816125ef565b840191505092915050565b60008154611cc581612487565b611ccf818661230b565b94506001821660008114611cea5760018114611cfc57611d2f565b60ff1983168652602086019350611d2f565b611d05856122c4565b60005b83811015611d2757815481890152600182019150602081019050611d08565b808801955050505b50505092915050565b6000611d4560188361230b565b9150611d5082612600565b602082019050919050565b6000611d68604d8361230b565b9150611d7382612629565b606082019050919050565b6000611d8b60038361230b565b9150611d968261269e565b602082019050919050565b6000611dae60138361230b565b9150611db9826126c7565b602082019050919050565b6000611dd1600f8361230b565b9150611ddc826126f0565b602082019050919050565b6000611df460178361230b565b9150611dff82612719565b602082019050919050565b6000611e1760138361230b565b9150611e2282612742565b602082019050919050565b6000611e3a60168361230b565b9150611e458261276b565b602082019050919050565b6000611e5d600083612300565b9150611e6882612794565b600082019050919050565b6000611e8060228361230b565b9150611e8b82612797565b604082019050919050565b6000611ea360178361230b565b9150611eae826127e6565b602082019050919050565b6000611ec6602d8361230b565b9150611ed18261280f565b604082019050919050565b6000611ee9600e8361230b565b9150611ef48261285e565b602082019050919050565b611f088161243b565b82525050565b6000611f1982611e50565b9150819050919050565b6000602082019050611f386000830184611c28565b92915050565b60006020820190508181036000830152611f588184611c46565b905092915050565b60006020820190508181036000830152611f7a8184611c7f565b905092915050565b60006020820190508181036000830152611f9b81611d38565b9050919050565b60006020820190508181036000830152611fbb81611d5b565b9050919050565b60006020820190508181036000830152611fdb81611da1565b9050919050565b60006020820190508181036000830152611ffb81611dc4565b9050919050565b6000604082019050818103600083015261201b81611de7565b9050818103602083015261202e81611d7e565b9050919050565b6000602082019050818103600083015261204e81611e0a565b9050919050565b6000602082019050818103600083015261206e81611e2d565b9050919050565b6000602082019050818103600083015261208e81611e73565b9050919050565b600060208201905081810360008301526120ae81611e96565b9050919050565b600060208201905081810360008301526120ce81611eb9565b9050919050565b600060208201905081810360008301526120ee81611edc565b9050919050565b600060208201905061210a6000830184611eff565b92915050565b60006080820190506121256000830187611eff565b81810360208301526121378186611c7f565b9050818103604083015261214b8185611c7f565b905061215a6060830184611c28565b95945050505050565b600061014082019050612179600083018d611eff565b818103602083015261218b818c611c7f565b9050818103604083015261219f818b611c7f565b90506121ae606083018a611eff565b6121bb6080830189611eff565b6121c860a0830188611c28565b6121d560c0830187611c28565b6121e260e0830186611eff565b6121f0610100830185611c37565b6121fe610120830184611eff565b9b9a5050505050505050505050565b600060a0820190506122226000830188611eff565b81810360208301526122348187611cb8565b905081810360408301526122488186611cb8565b90506122576060830185611eff565b6122646080830184611c28565b9695505050505050565b6000612278612289565b905061228482826124b9565b919050565b6000604051905090565b600067ffffffffffffffff8211156122ae576122ad6125c0565b5b6122b7826125ef565b9050602081019050919050565b60008190508160005260206000209050919050565b600081519050919050565b600081519050919050565b600082825260208201905092915050565b600081905092915050565b600082825260208201905092915050565b60006123278261243b565b91506123328361243b565b9250827fffffffffffffffffffffffffffffffffffffffffffffffffffffffffffffffff0382111561236757612366612533565b5b828201905092915050565b600061237d8261243b565b91506123888361243b565b92508261239857612397612562565b5b828204905092915050565b60006123ae8261243b565b91506123b98361243b565b9250817fffffffffffffffffffffffffffffffffffffffffffffffffffffffffffffffff04831182151516156123f2576123f1612533565b5b828202905092915050565b60006124088261241b565b9050919050565b60008115159050919050565b600073ffffffffffffffffffffffffffffffffffffffff82169050919050565b6000819050919050565b82818337600083830152505050565b60005b83811015612472578082015181840152602081019050612457565b83811115612481576000848401525b50505050565b6000600282049050600182168061249f57607f821691505b602082108114156124b3576124b2612591565b5b50919050565b6124c2826125ef565b810181811067ffffffffffffffff821117156124e1576124e06125c0565b5b80604052505050565b60006124f58261243b565b91507fffffffffffffffffffffffffffffffffffffffffffffffffffffffffffffffff82141561252857612527612533565b5b600182019050919050565b7f4e487b7100000000000000000000000000000000000000000000000000000000600052601160045260246000fd5b7f4e487b7100000000000000000000000000000000000000000000000000000000600052601260045260246000fd5b7f4e487b7100000000000000000000000000000000000000000000000000000000600052602260045260246000fd5b7f4e487b7100000000000000000000000000000000000000000000000000000000600052604160045260246000fd5b6000601f19601f8301169050919050565b7f796f757420617265206e6f7420617574686f72697a6564210000000000000000600082015250565b7f596f7572206f7264657220616c726561647920686173206265656e206c6f636b60008201527f65642120706c656173652064656c657465206f6c64206f7264657220616e642060208201527f6372656174696e67206e65772e00000000000000000000000000000000000000604082015250565b7f6275790000000000000000000000000000000000000000000000000000000000600082015250565b7f6e6f742076616c696420696d6167652069642100000000000000000000000000600082015250565b7f4e6f206f7264657220666f756e64210000000000000000000000000000000000600082015250565b7f4875727261792120496d61676520697320796f75727321000000000000000000600082015250565b7f4661696c656420746f2073656e64204554482100000000000000000000000000600082015250565b7f696d616765206861736820697320726571756972656400000000000000000000600082015250565b50565b7f6d696e696d756d2073656c6c696e67207072696365206973207265717569726560008201527f6421000000000000000000000000000000000000000000000000000000000000602082015250565b7f6465736372697074696f6e206973207265717569726564000000000000000000600082015250565b7f70726963652073686f756c64206265206265747765656e203020616e6420657860008201527f7065637465642070726963652100000000000000000000000000000000000000602082015250565b7f57726f6e67204164647265737321000000000000000000000000000000000000600082015250565b612890816123fd565b811461289b57600080fd5b50565b6128a78161240f565b81146128b257600080fd5b50565b6128be8161243b565b81146128c957600080fd5b5056fea2646970667358221220a111ea5c4e14e9eb8931701c25ee0adfbc2b32c5746035e5f1e621942e650cf864736f6c63430008040033",
  "immutableReferences": {},
  "source": "// SPDX-License-Identifier: MIT\npragma solidity ^0.8.4;\n\ncontract SnapDapp {\n  address public contractOwner; // from solidity 0.8.0 we don't need to declare the address as payable explicitly, but when you rare transferring an amount to such address. \n  string public name = \"SnapDapp\";\n\n  constructor(address _ownerAddress){\n      contractOwner = _ownerAddress;\n  }\n\n\n  struct Image{\n      uint id;\n      string hash;\n      string description;\n      uint tipAmount;\n      uint minSellingPrice;\n      address author; \n      address imgOwner; \n      uint bidderCount;\n      bool wantToSell;\n      uint boughtCount;\n      address[] buyers;\n      mapping(address => uint) requests; // buying requests with buyer address and paid amount\n      mapping(address => uint) tippedBy; // it will contain address of the people who tipped with amount\n      mapping(uint => bytes32[]) boughtAt; // number of times it has beed bought and array with address and amount // FIXME: also with time \n  }\n  \n  \n  uint public imageCount = 0;\n\n  // store Images \n  mapping(uint => Image) public images;\n\n  \n  modifier restricted() {\n    require(\n      msg.sender == contractOwner,\n      \"This function is restricted to the contract's owner\"\n    );\n    _;\n  }\n  \n        /*\n    Which function is called, fallback() or receive()?\n\n           send Ether\n               |\n         msg.data is empty?\n              / \\\n            yes  no\n            /     \\\nreceive() exists?  fallback()\n         /   \\\n        yes   no\n        /      \\\n    receive()   fallback()\n    */\n    \n    // functon to receive ETH. msg.data must be empty\n    receive() external payable {}\n    \n    // fallback function is called when msg.data is not empty\n    fallback() external payable {}\n    \n    function getBalance() public view returns(uint){\n        return address(this).balance;\n    }\n\n  // event to emit when image is posted\n    event ImagePosted(\n        uint id,\n        string hash, \n        string description,\n        address author\n    );\n\n  // event to emit when image is tipped\n    event ImageTipped(\n        uint id,\n        string hash, \n        string description,\n        uint tipAmount,\n        address author\n    );\n\n  // image buying request\n    event ImageRequest(\n        string msg, \n        string actionType\n    );\n\n  // event to emit when image is bought\n    event ImageBought(\n        string msg, \n        string actionType\n    );\n\n    // post image\n    function uploadImage(string memory _imgHash, string memory _description,  uint _minSellingPrice, bool _wantToSell) public{\n\n        // make sure image hash exists\n        require(bytes(_imgHash).length > 0, \"image hash is required\");\n        // console.log(bytes(_imgHash));\n\n        // make sure image description exists\n        require(bytes(_description).length > 0, \"description is required\");\n\n        // make sure minimum selling price exists\n        require(_minSellingPrice > 0, \"minimum selling price is required!\");\n\n        // make sure uploader address exists\n        require(msg.sender != address(0x0), \"Wrong Address!\");\n        \n\n        // increment image id\n        imageCount++;\n\n        ////TYPE ERROR:  we cannot do like this:  because Image type variable contains nested mapping\n        // images[imageCount] = Image( \n        //     imageCount, \n        //     _imgHash, \n        //     _description, \n        //     0, \n        //     _minSellingPrice, \n        //     msg.sender, \n        //     msg.sender\n        // );\n        \n        \n        // add image to contract \n        Image storage newImage = images[imageCount];\n        newImage.id = imageCount;\n        newImage.hash = _imgHash;\n        newImage.description = _description;\n        newImage.tipAmount = 0;\n        newImage.minSellingPrice = _minSellingPrice;\n        newImage.author = msg.sender;\n        newImage.imgOwner = msg.sender;\n        newImage.wantToSell = _wantToSell;\n        \n        emit ImagePosted(\n            imageCount, \n            _imgHash, \n            _description, \n            msg.sender\n        );\n    }\n    \n    // tip image owner\n    function tipImageOwner(uint _id) public payable{\n    \n        // make sure given id is valid\n        require(_id > 0 && _id <= imageCount);\n        \n        \n        // fetch the image\n        // Image memory _image = images[_id];\n\n        Image storage _image = images[_id]; // saved in storage because I will work directly on it, not on the copy of it\n        \n        // fetch the author\n        address _author = _image.author;\n        \n        // fetch the current image owner\n        address _imgOwner = _image.imgOwner;\n        \n        // tip the author by sending some ether\n        uint _authorReward = (msg.value * 20)/100;  // 20%\n        uint _ownerReward = (msg.value * 80)/100;   // 80%\n        \n        // here 20% of amount will be transferred to imgAuthor and 80% amount will be transferred to ImageOwner\n        \n        // check if author and imgOwner are same or different \n        if(_author != _imgOwner){\n            payable(_author).transfer(_authorReward);\n            payable(_imgOwner).transfer(_ownerReward);\n        }\n        else{\n            payable(_author).transfer(msg.value);\n        }\n        \n        // increament the tip amount of the image\n        _image.tipAmount += msg.value;\n        \n        // now add tipper in the mapping of tippedBy with tipped amount\n        _image.tippedBy[msg.sender] += msg.value;\n        \n        \n        emit ImageTipped(\n            _id, \n            _image.hash, \n            _image.description, \n            _image.tipAmount, \n            _author\n        );\n    }\n    \n    \n    \n    \n    // make a request for buying image\n    function buyImageRequest(uint _id) public payable returns(bytes memory){\n        // make sure given id is valid\n        require(_id > 0 && _id <= imageCount);\n        \n        // fetch the image\n        Image storage _image = images[_id];\n        \n        // fetch the current image owner\n        address _imgOwner = _image.imgOwner;\n        \n        require(msg.value <= _image.minSellingPrice && msg.value > 0, \"price should be between 0 and expected price!\");\n        \n        // check if buyer has already locked an order or not\n        require(_image.requests[msg.sender] == 0, \"Your order already has been locked! please delete old order and creating new.\");\n        \n        // if buyer's offered price is equal or more than the seller's expected price then transfer money to the current owner and directly change owner\n        \n        if(_image.minSellingPrice <= msg.value && _image.wantToSell){\n            // check if image is for sale or not\n        \n            //// transfer money directly to the owner\n            //payable(_imgOwner).transfer(msg.value); //this method id not longer allowed for transferring ETH\n        \n            //// Call returns a boolean value indicating success or failure.\n            (bool sent, bytes memory data) = payable(_imgOwner).call{value: msg.value}(\"\");\n            \n            require(sent, \"Failed to send ETH!\");\n            \n            \n            // now change owner\n            _image.imgOwner = msg.sender;\n            \n            // now remove from sale\n            _image.wantToSell = false;\n            \n            _image.boughtCount++;\n            \n            _image.boughtAt[_image.boughtCount] = [bytes32(uint256(uint160(msg.sender))), bytes32(msg.value)];\n            \n            _image.bidderCount++; \n            \n            _image.requests[msg.sender] = 0; \n            \n            emit ImageBought('Hurray! Image is yours!', 'buy');\n            return data;\n                    \n        }else{\n            // create and lock order for buying image at given value\n            _image.requests[msg.sender] = msg.value;  \n            \n            // address[] memory _buyersList = _image.buyers;\n\n            _image.buyers.push(msg.sender);\n            \n            \n            // lock amount in the contract \n            (bool sent, bytes memory data) = payable(this).call{value: msg.value}(\"\");\n            \n            require(sent, \"Failed to send ETH!\");\n            \n            _image.bidderCount++; \n            emit ImageRequest('Hurray! Image is yours!', 'buy');\n            return data;\n        }\n    }\n    \n    // get request \n    function getRequest(uint _id, address _address) public view returns(uint){\n        return images[_id].requests[_address];\n    } \n    \n    \n    // TODO: remove auction option from image\n    function removeFromSale(uint _id) public{\n                // make sure given id is valid\n        require(_id > 0 && _id <= imageCount);\n        \n        // fetch the image\n        Image storage _image = images[_id];\n        \n        require(msg.sender == _image.imgOwner, \"yout are not authorized!\");\n        \n        _image.wantToSell = false;\n    }\n    \n    function getBuyersFromList(uint _imgId, uint _index) public view returns(address){\n        // make sure given id is valid\n        require(_imgId > 0 && _imgId <= imageCount, \"not valid image id!\");\n        \n        address currentBuyer = images[_imgId].buyers[_index];\n        \n        return currentBuyer;\n    }\n    \n    function getTotalBuyers(uint _imgId) public view returns(uint){\n        // make sure given id is valid\n        require(_imgId > 0 && _imgId <= imageCount, \"not valid image id!\");\n        \n        return images[_imgId].buyers.length;\n    }\n    \n    \n    \n    // change the selling price \n    function changePriceOrSell(uint _id, uint _minSellingPrice) public{\n                // make sure given id is valid\n        require(_id > 0 && _id <= imageCount);\n        \n        // fetch the image\n        Image storage _image = images[_id];\n        \n        require(msg.sender == _image.imgOwner, \"yout are not authorized!\");\n        \n        if(!_image.wantToSell){\n            _image.wantToSell = true;\n        }\n\n        _image.minSellingPrice = _minSellingPrice;\n        \n        address[] memory _buyersList = _image.buyers;\n        uint buyersLen = _buyersList.length;\n        bool buyerAvailable = false;\n        uint i = 0;\n        \n        // check in the requests if someone wants to buy this image or not at expected price, if yes then sell the image\n        while(i < buyersLen && !buyerAvailable){\n            \n            address currentAddr = _buyersList[i];\n            \n            \n            if(_image.requests[currentAddr] == _minSellingPrice){\n                buyerAvailable = true;\n            \n                // transfer money from contract now.\n                (bool sent, bytes memory data) = payable(_image.imgOwner).call{value: _minSellingPrice}(\"\");\n                \n                require(sent, \"Failed to send ETH!\");\n                \n                \n                // now change owner\n                _image.imgOwner = currentAddr;\n                \n                // now remove from sale\n                _image.wantToSell = false;\n                \n                _image.boughtCount++;\n                \n                _image.boughtAt[_image.boughtCount] = [bytes32(uint256(uint160(currentAddr))), bytes32(_minSellingPrice)];\n                \n                _image.requests[currentAddr] = 0; \n            }\n            i++;\n        }\n        \n    }\n    \n    \n    // TODO: Delete order and get refund\n    \n    function removeOrder(uint _imgId) public returns (bytes memory){ \n        require(_imgId > 0 && _imgId <= imageCount);\n        \n        // fetch the image\n        Image storage _image = images[_imgId];\n        \n        // check if this user is available or not \n        require(_image.requests[msg.sender] != 0, 'No order found!');\n        \n        // transfer money from contract now.\n        (bool sent, bytes memory data) = payable(msg.sender).call{value: _image.requests[msg.sender]}(\"\");\n                \n        require(sent, \"Failed to send ETH!\");\n        \n        _image.requests[msg.sender] = 0;\n\n        return data;\n    }\n}\n\n\n\n\n\n\n\n\n",
  "sourcePath": "/Users/aloora/Documents/snap_dapp/contracts/SnapDapp.sol",
  "compiler": {
    "name": "solc",
    "version": "0.8.4+commit.c7e474f2.Emscripten.clang"
  },
  "schemaVersion": "3.4.1",
  "updatedAt": "2021-08-11T17:33:15.642Z",
  "networkType": "ethereum",
  "devdoc": {
    "kind": "dev",
    "methods": {},
    "version": 1
  },
  "userdoc": {
    "kind": "user",
    "methods": {},
    "version": 1
  }
}